:020000040800F2
:10000000F01F0020250200086B1A0008EF180008F6
:10001000691A000895050008192000080000000072
:100020000000000000000000000000008D0100083A
:10003000DB05000800000000D10100087D1A00085F
:100040003F0200083F0200083F0200083F0200088C
:100050003F0200083F0200083F0200083F0200087C
:100060003F0200083F0200083F0200083F0200086C
:100070003F0200083F02000899050008A505000896
:100080003F0200083F0200083F0200083F0200084C
:100090003F0200083F0200083F0200083F0200083C
:1000A0003F020008091B00083F0200083F02000849
:1000B0003F0200083F0200083F0200083F0200081C
:1000C0003F0200083F0200083F0200083F0200080C
:1000D0003F0200080D2000083F0200083F02000810
:1000E0003F0200083F0200083F02000800F002F84B
:1000F00000F03CF80AA090E8000C82448344AAF186
:100100000107DA4501D100F031F8AFF2090EBAE883
:100110000F0013F0010F18BFFB1A43F0010318473B
:10012000004D0000204D0000103A24BF78C878C16F
:10013000FAD8520724BF30C830C144BF04680C60ED
:10014000704700000023002400250026103A28BF35
:1001500078C1FBD8520728BF30C148BF0B60704739
:100160001FB500F0CBF91FBD10B510BD00F0D8F9D8
:100170001146FFF7F5FF01F0EDFF00F0F6F903B4CB
:10018000FFF7F2FF03BC00F0FFF90000224B1968F3
:100190000868B0E8F00F80F30988BFF36F8F4FF065
:1001A000000080F311884EF00D0E70470000000033
:1001B00006480068006880F3088862B661B6BFF33D
:1001C0004F8FBFF36F8F00DF00BF00BF08ED00E06F
:1001D000EFF30980BFF36F8F0F4B1A6820E9F00F20
:1001E000106008B54FF0500080F31188BFF34F8FB7
:1001F000BFF36F8F03F036FE4FF0000080F31188DD
:10020000BDE8084019680868B0E8F00F80F3098875
:10021000BFF36F8F704700BF24000020EFF305800D
:10022000704700000948804709480047FEE7FEE79D
:10023000FEE7FEE7FEE7FEE7FEE7FEE7FEE7FEE796
:1002400004480549054A064B70470000051B000895
:10025000ED000008F0190020F01F0020F01B002026
:10026000F01B002010B5431C02E010F8011B71B117
:100270008107FAD14FF0013202C88C1A8C4314EA7C
:10028000C211F9D0C01A0A0603D0C01E10BDC01A90
:1002900010BD0A0401D0801E10BD0902FCD0401E12
:1002A00010BD40EA010370B59B072ED14FF0013617
:1002B000042A2AD308C810C99D1B9D43121F15EAA2
:1002C000C61517D0D8B2E1B2401A50EA056110D174
:1002D00098B2A1B2401A50EA05410AD123F07F40FA
:1002E00024F07F41401A50EA052102D1180EA0EBFC
:1002F000146070BDA342DBD018BA21BA884201D97C
:10030000012070BD4FF0FF3070BD0AB9002070BDF4
:1003100010F8013B11F8014B63B1A3420AD1521E00
:1003200008D010F8013B11F8014B1BB1A34201D1D9
:10033000521EEDD1181B70BD032A40F2308010F020
:10034000030C00F0158011F8013BBCF1020F624470
:1003500098BF11F801CB00F8013B38BF11F8013B01
:10036000A2F1040298BF00F801CB38BF00F8013BAE
:1003700011F0030300F02580083AC0F0088051F81E
:10038000043B083A51F804CBA0E80810F5E7121D29
:100390005CBF51F8043B40F8043BAFF30080D20748
:1003A00024BF11F8013B11F801CB48BF11F8012B14
:1003B00024BF00F8013B00F801CB48BF00F8012B37
:1003C000704710B5203AC0F00B80B1E81850203AC1
:1003D000A0E81850B1E81850A0E81850BFF4F5AFE5
:1003E0005FEA027C24BFB1E81850A0E8185044BF6F
:1003F00018C918C0BDE810405FEA827C24BF51F8DC
:10040000043B40F8043B08BF7047D20728BF31F8CF
:10041000023B48BF11F8012B28BF20F8023B48BF20
:1004200000F8012B70474FF0000200B513469446C8
:100430009646203922BFA0E80C50A0E80C50B1F13C
:100440002001BFF4F7AF090728BFA0E80C5048BF50
:100450000CC05DF804EB890028BF40F8042B08BFEE
:10046000704748BF20F8022B11F0804F18BF00F8EA
:10047000012B70474FF0013C50F8042B51F8043B1E
:100480009A4221D1A2EB0C03934313EACC1317D168
:1004900050F8042B51F8043B9A4215D1A2EB0C03FF
:1004A000934313EACC130BD150F8042B51F8043BBF
:1004B0009A4209D1A2EB0C03934313EACC13DBD08D
:1004C0004FF00000704700BFD01A01BAB1FA81F1B5
:1004D00001F0180122FA01F0CB40C1F12001DBB29A
:1004E000C0B2C01A2CFA01F3D11A914311EAC31118
:1004F000E6D17047704770477047000070B5064CF2
:100500007C44064D7D4403E0206820448047241D40
:10051000AC42F9D170BD00005C4A00005C4A0000AA
:10052000754600F02BF8AE4605006946534620F0AC
:100530000700854618B020B5FFF782FEBDE82040D1
:100540004FF000064FF000074FF000084FF0000B8F
:1005500021F00701AC46ACE8C009ACE8C009ACE842
:10056000C009ACE8C0098D46704710B50446AFF32A
:1005700000802046BDE81040FFF701BE00487047EC
:10058000901900207047000001491820ABBEFEE71B
:1005900026000200FEE70000014800F091B80000CC
:1005A00084040020014800F08BB8000040040020C3
:1005B00030B590F840500124AC40C56B6C600468C5
:1005C00063604368102B036803D099600068C260C1
:1005D00030BD9A600068C16030BD704772B6FEE7FA
:1005E00010B590F821100022022905D00421816362
:1005F00080F82020012010BD01680B6823F00E0355
:100600000B6001680B6823F001030B6090F8403029
:10061000012404FA03F1C36B596080F8214080F88B
:100620002020104610BD000010B590F821100024C5
:10063000022903D00421816301243DE001680A6896
:1006400022F00E020A6001680A6822F001020A60C4
:100650001A4A0168914201D1012121E0174A14325E
:10066000914201D110211BE0144A2832914201D15C
:10067000891515E0114A3C32914201D189140FE0ED
:100680000E4A5032914202D14FF4803108E00B4AB9
:100690006432914202D14FF4801101E04FF0807139
:1006A000064A083A5160012180F82110002180F8A3
:1006B0002010416B01B18847204610BD0800024060
:1006C0002DE9F05FC16B0B6801680A68046C4FF09C
:1006D000040C0CFA04FC4A4DDFF828A14A4E4B4F9B
:1006E000DFF82CB1DFF82CE11CEA030F2DD05FEA14
:1006F000427C2AD50A68920603D40A6822F00402D2
:100700000A600168A94201D1042119E0514501D1D3
:10071000402115E0B14202D14FF4806110E0B942AE
:1007200002D14FF480410BE0594502D14FF48021B2
:1007300006E0714502D14FF4800101E04FF0806185
:100740002F4A083A5160C16A3BE04FF0020808FAAC
:1007500004F818EA030F4FF000094FF0010C35D0F0
:100760005FEA827832D50A68920605D40A6822F0D8
:100770000A020A6080F821C00168A94201D1022161
:1007800019E0514501D1202115E0B14202D14FF4C9
:10079000007110E0B94202D14FF400510BE059450D
:1007A00002D14FF4003106E0714502D14FF400113F
:1007B00001E04FF00071124A083A516080F8209031
:1007C000816A00291AD0BDE8F05F08470825A540D6
:1007D0001D4213D0120711D50A6822F00E020A60DA
:1007E00090F84010C26B0CFA01F15160C0F838C0AB
:1007F00080F821C080F82090016BE2E7BDE8F09F0F
:10080000080002401C000240300002404400024048
:10081000580002406C00024030B528B302C8134AA9
:1008200014230A44B2FBF3F29200C263104A8263BB
:10083000022242770B6843F6F0729343D0E900241A
:100840002243D0E902452C432243046922434469F0
:100850002243846922431A430A6000214163012232
:1008600042770177084630BD012030BDF8FFFDBF5B
:100870000000024070B5044690F8200000250128D1
:100880000CD0012084F8200094F821600020012E73
:1008900006D084F820000225284670BD022070BDD5
:1008A000022684F82160A0632068066826F001060D
:1008B00006602046FFF77CFEE06A00282068016899
:1008C00002D041F00E0106E021F004010160206831
:1008D000016841F00A0101602068016841F00101EE
:1008E0000160D9E72DE9F84FDFF8A4910024A9F1C0
:1008F000040B23464FF00F0809F1040AABF1040E74
:10090000BEE00127A7403A40BA4272D1DFF884C165
:100910004D68A5EB0C0665452BD00DDC032D34D0BE
:1009200005DC35B3012D19D0022D2FD11BE0112D7F
:1009300016D0122D2AD119E0B6F5881F19D006DC81
:10094000B6F5803F15D0B6F5801F1FD111E0B6F582
:10095000001F0ED0B6F5041F18D10AE0CB6815E0D1
:10096000CB681B1D12E0CB6808330FE0CB680C335B
:100970000CE08B682BB1012B4FF0080303D04761CB
:1009800004E0042302E0076100E00023FF2A01D80D
:10099000064601E000F104064FEA840501D9A5F1FD
:1009A0002005376808FA05FC27EA0C0703FA05F565
:1009B00047EA050737604D68ED0060D5364DAE69F2
:1009C00046F00106AE61AD6924F0030605F00105AD
:1009D0000095324D7719BE68A5072D0F08FA05FC62
:1009E00026EA0C06DFF8B8C0604503D14FF0000CD2
:1009F00017E044E0DFF8ACC0604502D14FF0010CD5
:100A00000FE0DFF8A4C0604502D14FF0020C08E00F
:100A1000DFF898C0604502D14FF0030C01E04FF0C1
:100A2000040C0CFA05FC4CEA060CC7F808C04D682B
:100A3000D9F80060ED024D4601D5164300E096431B
:100A40002E604D68DAF80060AD02554601D51643B8
:100A500000E096432E604D68DBF80060AD035D4614
:100A600001D5164300E096432E604D68DEF8006025
:100A7000ED03754601D5164300E096432E60641CD5
:100A80000A6832FA04F57FF43CAFBDE8F88F000045
:100A90000804014000001110001002400000014055
:100AA00000080140000C014000100140001401400A
:100AB00001488068704700001400002002488168E7
:100AC000027811448160704714000020074810B577
:100AD000016841F010010160032000F0A1F800203E
:100AE00000F006F800F04AF8002010BD0020024097
:100AF00030B505461C4887B0816941F400618161C9
:100B0000806905A900F400600690684600F036F997
:100B100000F064F91549164AB0FBF1F11548491E79
:100B2000026040F2E732C26000220261C0E90112B5
:100B3000826100F017FB040012D10E4800F040FB68
:100B400004000DD1192000F03DF8102D07D200222D
:100B50002946192000F044F80748056000E0012408
:100B600007B0204630BD00000010024040420F0098
:100B7000002C0140C8040020180000200F4808B5D0
:100B8000816941F001018161816901F001010091F8
:100B9000C16941F08051C161C069002200F08050FC
:100BA00000900F21901E00F01BF80549486820F0C6
:100BB000E06040F00070486008BD00000010024096
:100BC00000000140002809DB00F01F0201219140D4
:100BD0004009800000F1E020C0F8001170470000DB
:100BE000F0B40E4B1B68C3F30223C3F10704042CBB
:100BF00000D904241D1D072D01D2002300E0DB1EB7
:100C0000012606FA04F56D1E0D409D409E40761E9D
:100C1000164045EA0601F0BC01F0FFB90CED00E01A
:100C2000064A00F0070110684FF6FF03184040EA3B
:100C30000120034908431060704700000CED00E0FC
:100C40000000FA052DE9F0470D46040067D0DFF8F3
:100C50001881D8F8000000F00700A8420CD2D8F89C
:100C6000001021F007012943C8F80010D8F800004F
:100C700000F00700A84252D120683C4E810712D5EF
:100C8000400703D5706840F4E0607060207800078A
:100C900003D5706840F4605070607068A16820F0FF
:100CA000F000084370602078C00727D060680128F2
:100CB00010D03168022810D0890700292FDA716816
:100CC00021F0030101437160FFF7F2FE074641F294
:100CD00088390CE031688903EFE78901EDE7FFF718
:100CE000E7FEC11B494502D90320BDE8F0877068C3
:100CF000616800F00C00B0EB810FF0D1D8F8001063
:100D0000404601F00701A9420BD9016821F0070113
:100D100029430160006800F00700A84201D00120CB
:100D2000E3E72078400705D57068E16820F4E060CB
:100D3000084370602078000706D57068216920F4A8
:100D4000605040EAC100706000F058F87168084ACD
:100D5000C1F30311515CC8400649086006480068A9
:100D6000FFF7C6FE0020C0E700200240001002404E
:100D70005A4A000820000020180000200F220260BC
:100D80000C4A536803F003034360536803F0F00315
:100D90008360536803F4E063C36052684FF4E06318
:100DA00003EAD20202610448006800F0070008600C
:100DB000704700000010024000200240044805492E
:100DC00000684968044AC1F30221515CC840704779
:100DD00020000020001002406A4A0008044805492B
:100DE00000684968044AC1F3C221515CC840704799
:100DF00020000020001002406A4A00080E4B59688B
:100E00000E4801F00C02042A11D0082A0FD10C4818
:100E1000C1F38342C903805C0AD55968084AC1F30B
:100E20004041921E515C054A5043B0FBF1F07047BF
:100E300004494843704700000010024000127A0045
:100E40004A4A000800093D002DE9F84F04006FD020
:100E50002078BE4DC00747D06868C0F381000128E4
:100E600007D06868C0F38100022809D16868C00310
:100E700006D52868800337D560680028E7D033E0BE
:100E80006068B0F5803F0BD010B1B0F5A02F11D045
:100E9000286820F480302860286820F4802002E050
:100EA000286840F480302860606888B1FFF700FE51
:100EB000064609E0286840F480202860F0E7FFF744
:100EC000F7FD801B642873D828688003F7D50BE0F2
:100ED000FFF7EEFD064604E0FFF7EAFD801B6428FD
:100EE000F1D828688003F7D42078DFF8648280077F
:100EF0004FF0010A4FF0000939D5686810F00C0F67
:100F000007D06868C0F38100022809D16868C0036F
:100F100006D42868800714D52069012808D110E07C
:100F20002069B0B1C8F800A0FFF7C2FD064605E091
:100F300007E1FFF7BDFD801B0228C4D828688007A1
:100F4000F7D52868616920F0F80040EAC100286000
:100F50000DE0C8F80090FFF7ABFD064604E0FFF790
:100F6000A7FD801B022823D828688007F7D42078A3
:100F700000072CD57748A169D9B1C0F800A0FFF7C8
:100F800097FD064604E0FFF793FD801B02280FD86B
:100F9000686A8007F7D570484FF4FA510068B0FBD3
:100FA000F1F0009000BF0098411E0091FAD20EE0CF
:100FB0007CE0C0F80090FFF77BFD064604E0FFF7F9
:100FC00077FD801B022871D8686A8007F7D42078E3
:100FD00040075BD5E8690027C00008D4E86940F005
:100FE0008050E861E869012700F0805000905B487C
:100FF0000168C90511D40168834641F4807101601C
:10100000FFF756FD064604E0FFF752FD801B6428FB
:101010004CD8DBF80000C005F6D5E06801280AD0FE
:1010200008B1052813D0286A20F001002862286A38
:1010300020F0040002E0286A40F001002862E06825
:1010400041F2883B88B1FFF733FD064609E0286A84
:1010500040F004002862EEE7FFF72AFD811B5945A6
:101060005BD8286A8007F7D50BE0FFF721FD06461D
:1010700004E0FFF71DFD811B59454ED8286A800703
:10108000F7D41FB1E86920F08050E861E069A8B3A7
:101090006968C1F38101022946D00228484606D07A
:1010A000C8F86000FFF704FD044639E035E0474624
:1010B000C8F86000FFF7FCFC064604E0FFF7F8FC08
:1010C000801B022829D828688001F7D4206AB0F54F
:1010D000803F05D16868A16820F40030084368604B
:1010E000D4E908010843696821F474110843686071
:1010F000C7F860A0FFF7DCFC044605E023E0FFF73B
:10110000D7FC001B022808D828688001F7D51AE010
:10111000FFF7CEFC001B022802D90320BDE8F88FA0
:1011200028688001F4D40EE00128F7D06868226AAC
:1011300000F48031914204D1616A00F47010884259
:1011400001D00120EAE70020E8E70000001002409B
:101150000000424280044242200000200070004013
:101160007047704710B5040003D094F83D0010B1EB
:1011700007E0012010BD002084F83C00204600F06C
:101180001EF8022084F83D00211D206800F0C2FCFA
:10119000012084F8460084F83E0084F83F0084F87B
:1011A000400084F8410084F8420084F8430084F849
:1011B000440084F8450084F83D00002010BD7047CD
:1011C00090F83D10012901D001207047022180F8DC
:1011D0003D100168CA6842F00102CA6000680B490C
:1011E000884208D0B0F1804F05D00949884202D02A
:1011F0000849884204D1816801F00701062903D01B
:10120000016841F00101016000207047002C01409D
:10121000000400400008004070472DE9F0410446FA
:101220000068C66805694FF00007A90713D5B10724
:1012300011D5F91E0161012020772068806980079F
:10124000204602D0FFF7E8FF04E000F07EF82046D9
:1012500000F07CF82777680716D5700714D5216849
:101260006FF004000861022020772068806910F484
:10127000407F204602D0FFF7CFFF04E000F065F882
:10128000204600F063F82777280715D5300713D5D7
:1012900021686FF008000861042020772068C06989
:1012A0008007204602D0FFF7B7FF04E000F04DF8BA
:1012B000204600F04BF82777E80616D5F00614D53F
:1012C00021686FF010000861082020772068C0694D
:1012D00010F4407F204602D0FFF79EFF04E000F0AC
:1012E00034F8204600F032F82777E80708D0F007F6
:1012F00006D021686FF001000861204600F028F850
:10130000280608D5300606D521686FF080000861F0
:101310002046FFF725FF680608D5700606D5216828
:101320006FF040000861204600F01CF8A8060AD5BE
:10133000B00608D521686FF0200008612046BDE89E
:10134000F041FFF70EBFBDE8F08170477047000025
:1013500000680349884201D1FFF7B0BB7047000025
:10136000002C0140704738B5044690F84200202810
:1013700001D0022038BD71B16AB101202063002084
:101380006063204600F096FD0246206B012804D0E1
:101390000122104638BD012038BD20680168406830
:1013A000009020680C3050E8001F41F0100140E828
:1013B0000013002BF5D1ECE770477047704770477A
:1013C00010B504460068406994F84110C0F3C0109D
:1013D000212911D180B12068143050E8001F21F07C
:1013E000800140E80012002AF5D1A06B08B1FFF798
:1013F000F7F8204600F06CFC2068406994F8421031
:10140000C0F38010222911D180B12068143050E837
:10141000001F21F0400140E80012002AF5D1E06BE6
:1014200008B1FFF7DDF8204600F02BFC002010BDCE
:1014300070470000F8B5016804460868CA684B693F
:1014400010F00F0F4FF0000556D003F0010602F424
:101450009077374361D0C10705D0D10503D5616CC2
:1014600041F001016164410705D5D90703D0616CE2
:1014700041F002016164810705D5D90703D0616C91
:1014800041F004016164010707D502F020013143F6
:1014900003D0616C41F008016164616C00293BD0AC
:1014A000800604D5900602D5204600F045FC206851
:1014B0004069616CC0F38010090700D440B3204636
:1014C00000F0DFFB2068406940061ED5206814301C
:1014D00050E8001F21F0400140E80012002AF5D139
:1014E000E06B90B16E494163E06BFFF79DF8002817
:1014F00012D0E06B416BCEE083060ED593060CD57F
:101500002046BDE8F84000F017BC2046A16DC2E0BF
:10151000A16D204688476564F8BD266B2023012E07
:101520007ED1C6067CD5D6067AD508684868009074
:1015300048694FF00206400640D5E16B08684068F4
:101540000004000CE8D0A28D8242E5D9E0858869CC
:1015500020282DD020680C3050E8001F21F4807125
:1015600040E80012002AF5D12068143050E8001F2E
:1015700021F0010140E80012002AF5D12068143062
:1015800050E8001F21F0400140E80012002AF5D188
:1015900084F84230256320680C3050E8001F21F0A9
:1015A000100140E80012002AF5D1E06BFFF718F8AF
:1015B0006663A08DE18D401A81B22AE0A08DE18D95
:1015C000401A81B2E08D0028A6D00029A4D020685E
:1015D0000C3050E8002F22F4907240E80027002FD2
:1015E000F5D12068143050E8002F22F0010240E8C5
:1015F0000027002FF5D184F84230256320680C3095
:1016000050E8002F22F0100240E80023002BF5D113
:101610006663E26E01B02046BDE8F0401047FFE788
:1016200005062CD515062AD594F8410021287FF40B
:1016300073AFA068B0F5805F01D12069B0B1206AB6
:10164000411C2162216800784860E08C401E000443
:10165000000CE084EBD12068C16821F08001C160FA
:101660002068C16841F04001C160F8BD206A00886F
:10167000C0F308004860206A801C2062E5E740064D
:10168000F3D55006F1D5CA68204622F04002CA6060
:1016900084F84130E16C01B0BDE8F040084700003B
:1016A0008D1B000870B5040004D094F8410000259B
:1016B00010B10DE0012070BD84F84050204600F0CC
:1016C00015FB206F08B9144820670146204688475B
:1016D000242084F841002068C16821F40051C160D1
:1016E000204600F08BFB2068016921F490410161E4
:1016F0002068416921F02A0141612068C16841F4F4
:101700000051C1606564202084F8410084F84200E3
:101710006563002070BD00001D1700082DE9F04131
:1017200086B0002504460095019502950395006852
:101730002F49884258D12F48816941F48041816105
:10174000816901F480410491816941F00401816162
:101750008069294E00F0040004904FF4007000905E
:10176000022001900320039069463046FFF7BAF843
:101770003015CDE90005694630460295FFF7B2F80D
:101780001F4E1E484FF08008C6E90005C6E9025802
:1017900035614FF440577561C6E906573046FFF78B
:1017A0003BF808B1FEF71AFFE6637462144E134863
:1017B0004436143801C61020A6E82101104846F826
:1017C000105944307561C6E90657FFF725F808B18E
:1017D000FEF704FFA6630022052125207462FFF7AF
:1017E000FFF92520FFF7EEF906B0BDE8F081000013
:1017F000003801400010024000080140580002403B
:10180000400400200022A1B190F84030012B16D0F6
:10181000012380F8403090F84130202B11D0416CEA
:1018200041F0200141640122002180F8401010465F
:101830007047416C41F02001416401207047022053
:101840007047C166F0E7704770472DE9F8430446DA
:1018500090F841001F4615460E46202802D002206F
:10186000BDE8F8838EB185B100206064212084F842
:101870004100FFF71DF9A5848146E584A0684FF07B
:101880002008B0F5805F02D003E00120E8E720697E
:1018900010B1354600260EE000250CE080212046E0
:1018A00000F052FBA0B9BDB115F8010B21684860EA
:1018B000E08C401EE084E08C4B464FF00002009725
:1018C0000028EBD14FF04001204600F03DFB40B135
:1018D00084F841800320C3E736F8020BC0F3080008
:1018E000E4E784F841800020BAE770477047FEE7DC
:1018F0000D4808B5416941F001014161406900228C
:1019000000F00100009005210E20FFF769F90E207C
:10191000FFF758F9002205210F20FFF761F9BDE814
:1019200008400F20FFF74EB90010024010B51748CD
:101930009AB015AC0FC884E80F00002115A800F07C
:101940002AFC134C11491C22206110316846FEF715
:1019500038FD0021684600F031FC0C4960601C2213
:101960002C3107A8FEF72DFD002107A800F026FC6A
:101970000649A0601C2248310EA8FEF722FD002176
:101980000EA800F01BFCE0601AB010BDE44900088E
:101990000000002010B586B00020029003901E4881
:1019A000816941F010018161816901F010010491A8
:1019B000816941F020018161816901F02001049178
:1019C000816941F004018161816901F004010491A0
:1019D000816941F0080181618069032400F00800F9
:1019E00004904FF46040CDE9000469460B48FEF7CF
:1019F00079FF49F6FF10CDE9000469460848FEF773
:101A000071FF4FF6FF70CDE9000469460548FEF707
:101A100069FF06B010BD0000001002400010014038
:101A200000080140000C01400D4810B50B49016051
:101A30004FF4E1314160002181600C22C160C0E9B6
:101A400004128161C161FFF72DFE08B1FEF7C6FDEA
:101A5000BDE8104003490248FFF7D4BE00380140FA
:101A6000C8030020B91F0008FEE7FEE7012000F0D0
:101A700086FBFBE7012000F082FBFBE710B550205E
:101A800080F31188BFF34F8FBFF36F8F02F0A2FC7A
:101A900018B104494FF080500860002080F311888D
:101AA00010BD000004ED00E030B58FB0282168467D
:101AB000FEF7B9FC14210AA8FEF7B5FC01200104C9
:101AC00000248DE8130004904FF4E010CDE90810D5
:101AD000022507956846FFF7B7F908B172B6FEE729
:101AE0000F20CDE90A054FF48060CDE90C400221BA
:101AF0000AA80E94FFF7A6F8002801D072B6FEE7F8
:101B00000FB030BD704700000148FFF786BB0000F2
:101B1000C8040020F0B50268194C1A4D1A4E4FF057
:101B20008047A04205D0B84203D0A84201D0B042BD
:101B300003D122F070034A681A43A04205D0B8428C
:101B400003D0A84201D0B04203D122F44073CA6846
:101B50001A434B6922F080021A4302608A68C2620B
:101B60000A688262A04201D10969016301214161D1
:101B70000169C90703D0016921F001010161F0BDCC
:101B8000002C01400004004000080040406A002191
:101B9000C185C184816D084770B5446A2068406979
:101BA00094F84110C0F3C0100025212904D118B1C8
:101BB000E584204600F08CF82068406994F84210D3
:101BC000C0F38010222904D118B1E585204600F029
:101BD00058F8606C40F0100060642046A16DBDE8CC
:101BE0007040084730B40146406A096809684FF000
:101BF000000389062ED4C38501680C3151E8002FFB
:101C000022F4807241E80024002CF5D101681431DF
:101C100051E8002F22F0010241E80024002CF5D108
:101C20000168143151E8002F22F0400241E80024FD
:101C3000002CF5D1202180F84210016B012909D137
:101C400001680C3151E8002F22F0100241E8002415
:101C5000002CF5D14363016B012902D0416D30BCEA
:101C60000847818DC26E30BC1047406A0121416334
:101C7000016B012901D0016D0847818DC26E4908B1
:101C8000104701680C3151E8002F22F4907241E8AE
:101C90000023002BF5D10168143151E8002F22F008
:101CA000010241E80023002BF5D1016B012909D184
:101CB00001680C3151E8002F22F0100241E80023A6
:101CC000002BF5D1202180F84210002101637047DC
:101CD00001680C3151E8002F22F0C00241E80023D6
:101CE000002BF5D1202180F841107047094981640B
:101CF0000949C16409490165094941650949816585
:101D00000949C16509490166094941660949C16630
:101D100070470000ED180008EB180008491800088B
:101D20004718000831140008BB130008BF1300084F
:101D3000BD130008B913000808B590F84210222915
:101D400001D0022008BD81684FF48053994201D12F
:101D5000026922B1826A99421BD049B10AE0026845
:101D6000816A5268C2F308020A80816A891C08E00D
:101D7000016971B10168496801F07F011170816AE0
:101D8000491C8162C18D491E0904090CC18503D01B
:101D90001BE001684968F1E70168CA6822F0200287
:101DA000CA600168CA6822F48072CA6001684A6920
:101DB00022F001024A61202180F842100021416393
:101DC000026B012A03D0416D8847002008BD0163E2
:101DD00001680C3151E8002F22F0100241E8002385
:101DE000002BF5D101680A68D20602D50A68496855
:101DF0000091C26E818D9047E7E7000070B5044600
:101E000000680169E26821F4405111430161A16851
:101E100020690143606901432068C26841F20C6394
:101E20009A430A43C26020684169A26921F4407163
:101E3000114341611E492068884202D1FEF7CEFF5E
:101E400001E0FEF7BBFF00EBC00101EB0011606891
:101E500064228000B1FBF0F3B3FBF2F36FF01806DD
:101E60007343B1FBF0F5B1FBF0F605EB83053223CC
:101E700003EB0515B5FBF2F5B6FBF2F605F0F00540
:101E800005EB0615B1FBF0F6B1FBF0F0B0FBF2F09C
:101E90006FF01801484306EB800003EB0010B0FB25
:101EA000F2F0216800F00F002844886070BD000047
:101EB0000038014037B582B01346039A8262044667
:101EC000838500206064222184F84210E56B1B4961
:101ED000A962E56B1A49E962E56B1A492963E16B6E
:101EE00048632168E06B091DFEF7C4FC20680168A7
:101EF00040680090206948B120680C3050E8001F0D
:101F000041F4807140E80012002AF5D120681430B5
:101F100050E8001F41F0010140E80012002AF5D10D
:101F20002068143050E8001F41F0400140E80012E2
:101F3000002AF5D105B0002030BD0000E51B0008E7
:101F40006B1C0008991B00082DE9F8431F469046BA
:101F50000D460446089E23E0701C21D0FEF7A8FD24
:101F6000C01BB0421AD8CEB12068C168490717D546
:101F7000802D15D0402D13D00168C94309070FD417
:101F800001680025406800902046FFF77AFE08208F
:101F9000606484F840500120BDE8F8830320FBE72B
:101FA0002068006835EA000004D000204045D3D006
:101FB0000020F1E70120F9E7F8B50D460746FFF7E5
:101FC000FFF90F4C0F4E002320881A4600EB8010BB
:101FD00006EB40006946A0F8805000900A4800686F
:101FE00002F05AF820788022401C00F00100208086
:101FF00000EB801006EB40013846FFF7B4F9F8BD5E
:102000008C00002000160020100000200148FFF77F
:1020100011BA0000C8030020FEE70907090E0028D6
:1020200004DB00F1E02080F80014704700F00F009E
:1020300000F1E02080F8141D7047000010B5094839
:1020400001F012FD0020074A01460C3202EB00139A
:10205000401C19700828F9D3BDE81040014801F070
:1020600019BD0000E800002010B5040006D00948A2
:1020700001F0FAFC20680178012902D072B6FEF75F
:10208000ADFA001D01F0F0FCBDE81040014801F080
:1020900001BD0000E800002010B5040006D008488B
:1020A00001F0E2FC20680178012902D072B6FEF747
:1020B00095FA00210170BDE81040014801F0EABC2A
:1020C000E800002010B504000FD0154801F0CCFC4A
:1020D000134A00210C3202EB0110007838B1491C80
:1020E0000829F8D30E4801F0D5FC002010BD02EB02
:1020F00001100121206001702168091D0CD0002011
:10210000024641F82020401C0228FAD30A720448F3
:1021100001F0C0FC012010BD72B6FEF75FFA0000AE
:10212000E800002010B5040006D0094801F09CFC2E
:1021300020680178012902D072B6FEF74FFA001D1F
:1021400001F0A8FCBDE81040014801F0A3BC00006C
:10215000E8000020FEF7BAFCFFF7A6FCFFF71AFC28
:10216000FFF7C6FBFFF760FCFFF7E0FB00F00EF89F
:10217000FEE701460020842900D0C81C704710B536
:1021800000B9012001F0E4FD002010BD10B501F000
:102190002BFE002010BD38B5D0E9011204683AB119
:1021A000C3682BB100200090204601F0FEFE38BD30
:1021B0002046BDE83840002201F0D6BE7FB50D466E
:1021C00004464169B0F9080081B1A16971B1FFF716
:1021D000D0FFD4E905128DE80700D4E900102B46A2
:1021E000226902F0BCF8039004B070BDFFF7C1FF94
:1021F00003A9CDE90001208A2B4682B2D4E9001060
:1022000002F080F8012801D00020EDE70398EBE709
:102210002DE9F041184E0F460446F5683068001D60
:1022200001F0A4FC38B9306890F82C1001208840E7
:10223000316981433161601C07D137B13168BDE834
:10224000F0410E48091D01F0D5BC30682C44AC4269
:102250004460316805D2B06BBDE8F041091D01F062
:10226000B1BC706B091D01F0ADFCB06A844200D2B4
:10227000B462BDE8F081000024000020EC050020DD
:102280002DE9F041054601F0C1FC2E4EB068401C1E
:10229000B06030682C4F10B1706940B32DE03560EC
:1022A000B068012829D1002404EB840007EB8000EA
:1022B00001F07AFC641C072CF6D323488C3001F023
:1022C00073FC2148A03001F06FFC1F48B43001F0CE
:1022D0006BFC1D48C83001F067FC1B48DC3001F086
:1022E00063FC19488C3070631430B06305E03068CB
:1022F000E96AC06A884200D83560706A0121401CD2
:102300007062E86A326981401143316100EB8000FC
:1023100007EB8000291D01F06DFC01F097FC70694E
:1023200000280CD03068E96AC06A884207D20749A1
:102330004FF080500860BFF34F8FBFF36F8FBDE841
:10234000F0810000240000201005002004ED00E0D2
:1023500030B4026C0B46002A0BD0C1681144C16036
:102360008468A14201D30168C16030BC1846FDF702
:10237000E3BF30BC70472DE9F041856B174604463A
:102380000026026C82B1C7B1E068FDF7D5FFE168B5
:10239000206C091AE1602268914202D2A168081AF1
:1023A000E060022F16D017E02068A8B9A06802F0FC
:1023B00077F806460020A0600EE06068FDF7BCFFDD
:1023C000216C606808446060A168884204D320687A
:1023D000606001E005B16D1E6D1CA5633046BDE86F
:1023E000F08110B5044690F8510058B101280CD086
:1023F00002280FD0502080F31188BFF34F8FBFF316
:102400006F8FFEE7206B01F035FC2046BDE81040E1
:1024100001F030BC10BD000010484FF4805142075D
:1024200006D0C01D0D4920F00700411AC1F58051AA
:102430000B4A00230144C2E900030839183A21F08D
:10244000070111604B600B600B1AC0E90013936029
:102450004FF00040536050617047000000060020BC
:1024600078000020134E144DA6F1C8074FF0805895
:10247000DFF8489011E001F0C9FBF068C468201D46
:1024800001F074FBA868401EA8606868401E686080
:1024900001F0DCFB2046FFF7A4FF68680028EAD1C2
:1024A00038680128F9D9C9F80080BFF34F8FBFF30E
:1024B0006F8FF2E7D80500202400002004ED00E033
:1024C0000346009829B10260C0E90F31012101F0F3
:1024D0009FBD0060F8E72DE9F0479A46DDE90984E1
:1024E00081466FF00303206B03EB82021044089DCA
:1024F00020F00706700707D0502080F31188BFF343
:102500004F8FBFF36F8FFEE7002761B100202318C4
:102510000A5C83F834200A5C12B1401C1028F6D300
:1025200084F8437001E084F83470072D00D3062549
:10253000E562C4E91157201D01F041FB04F11800C8
:1025400001F03DFB2461C5F107006462A061E7640E
:1025500084F8507052464946304600F005F9206034
:10256000B8F1000F01D0C8F80040BDE8F0870000C6
:1025700030B5114900E011460A688242FBD34B682E
:102580005C18844203D14068184448600846436898
:102590001C18944209D1084C183C2468A24209D066
:1025A00052681A4442600A6812680260814200D090
:1025B000086030BD0460F9E77800002010B50446DB
:1025C00001F024FBA06B20B1002401F03FFB20466A
:1025D00010BD0124F9E700000648416B096829B1E4
:1025E000416BC968C9684968816270474FF0FF3123
:1025F000FAE700002400002008484068401C4FF023
:10260000500080F3118804D0BFF34F8FBFF36F8F5A
:10261000FEE7BFF34F8FBFF36F8FFEE78000002010
:102620002DE9F041044601F0F1FA94F9455004F126
:10263000240609E0606A48B1304601F07DFF08B128
:1026400001F0B4FB6D1E6DB2002DF3DC4FF0FF36D0
:1026500084F8456001F0FAFA01F0D8FA94F9445090
:1026600004F1100709E0206948B1384601F064FF21
:1026700008B101F09BFB6D1E6DB2002DF3DC84F8F8
:102680004460BDE8F04101F0E1BA00002DE9F041FD
:102690000546002601F0DEFB324F386808B9FFF727
:1026A000BBFE786905424ED1C5B3083568070ED028
:1026B00005F00700C0F108000544680707D0502066
:1026C00080F31188BFF34F8FBFF36F8FFEE72DB3F9
:1026D0007868854237D8234918310846046801E0F4
:1026E000214604466068A84202D220680028F7D13B
:1026F0003868844227D00E68206808606068083611
:10270000411B10290FD96019420708D0502080F3CF
:102710001188BFF34F8FBFF36F8FFEE713E0416067
:102720006560FFF725FF61687868401A7860BA68CD
:10273000904200D2B860786901430020C4E90001EA
:10274000F868401CF86001F031FF700707D0502096
:1027500080F31188BFF34F8FBFF36F8FFEE73046D2
:10276000BDE8F0816000002010B5031F4FF08074B9
:102770001C601B1F21F001011960191F024B0B6027
:10278000143940380A6010BDF9250008012100F015
:102790004DB80A784AB14B7803F00F03082B04D0E8
:1027A00003685BB11B781A4208D090F86000C0073C
:1027B00002D14878C00601D5002070474FF0FF30A5
:1027C0007047000010B500F095FA002805D00349C5
:1027D000896BBDE8104001F035B910BD94000020B0
:1027E000F8B505468089E989401A04B2202607E039
:1027F0008DF80060AA6E012168469047641E24B2DD
:10280000002CF5DC297B2846BDE8F84000F078B8BC
:1028100010B500F06FFA002803D0BDE8104000F0BA
:1028200073BC10BD4FF0FF31AFF30080F8B5044624
:10283000481C03D00023E28912B103E00123FAE728
:1028400001295CD0A089824201D14D1C57D00025BE
:10285000824201D1012901D0184613E0521E401EC8
:10286000E28180B2A08121690D542046BDE8F84084
:10287000012100F045B822691144421E465C401C0B
:102880008E5400B2A289E189521A8242F3DCA089F7
:10289000401EA081082643B9E089401EE0818DF8E2
:1028A0000060A26E012168469047A18920694554C5
:1028B000B4F90E5009E020690121405D8DF8000057
:1028C000A26E684690476D1C2DB2A089A842F2DC2A
:1028D00020208DF80000A26E012168469047A08953
:1028E000E189401A401C05B207E08DF80060A26E35
:1028F0000121684690476D1E2DB2002DF5DCF8BD14
:1029000070B50C46054603E003A1284601F09AF88D
:10291000641EE4B2F8D270BD082008004FF0FF3109
:1029200000F094BA10B5044600F006F82046BDE861
:102930001040012101F018B8F8B50446808900283C
:102940003CD021690025224E0D5494F86000C00748
:1029500028D0204600F0C6FA08200090A189202344
:1029600004F11402206900F079FE0004000CE086F6
:10297000E581A58122D017A1204601F063F800234C
:102980002046A26D616900F04AFD010004D0204696
:10299000BDE8F84000F0E6BC2046B169BDE8F8406B
:1029A00001F050B8206881682069FDF763FD30B1FF
:1029B000716B204601F046F8A581E581F8BD94F8D9
:1029C000600040F0010084F860003168F1E7000029
:1029D000940000200D0A000001460078272800D14D
:1029E000491C00200A785C2A01D0104670474978BB
:1029F0006E290FD004DC3029F8D0622904D105E01B
:102A0000722905D0742907D00846704708207047FE
:102A10000D2070470A207047092070472DE9F041CA
:102A20000746002100780A2601230D460C462D2872
:102A300000D14B1E581C08D000203844002290F8CA
:102A400000C0BCF1300F02D01CE00120F5E7427855
:102A5000782A07D0582A05D0622A05D0422A03D006
:102A600002220FE003220DE001220BE090F800C0EB
:102A7000BCF12E0F06D190F801C0BCF1000F01D0BF
:102A8000042204E010F801CBBCF1000FEED1012AC2
:102A900008D0022A03D0032A06D1102603E0082614
:102AA000012101E0022602213944581C02D00020F5
:102AB00001441FE00120FBE72E2805D0A0F13007DC
:102AC000092F03D8F8B20FE0012412E0A0F161074A
:102AD000052F01D8573804E0A0F14107052F02D88F
:102AE0003738C0B200E0002005FB060504EB840087
:102AF0004400491C08780028DED1042A13D194B17F
:102B0000184601F077FE0646204601F08BFE04468B
:102B1000284601F087FE214601F0AAFD3146BDE8B6
:102B2000F04101F093BE05FB03F0BDE8F0812DE913
:102B3000F041044608781F464FF0FF3622B12428A2
:102B400033D14A7822B930E027280AD02D2803D083
:102B5000A0F13002092A0BD80846FFF75FFF386062
:102B600036E04A78002AF3D00846FFF735FFF6E74B
:102B70004FF00008242806D0B8B100260D460C46B8
:102B8000222814D01EE04A78002AF6D000232046DE
:102B9000491CA26D00F043FC010006D0204600F065
:102BA000BDF838604046BDE8F0813046FBE76C1C5C
:102BB000254607E05C280DD0222811D0A855761CA8
:102BC000B6B2641C20780028F4D105F806803D6078
:102BD0000020E8E72046FFF7FFFEA855641CEEE75B
:102BE00005F80680EBE72DE9F04F8BB00D468346E4
:102BF00098461746202103A8FDF715FCA8787E1EED
:102C000000F00F00B04201DD074600E07F1E002407
:102C10004FF0FF3A0DF10C090AE008EB840009EBD4
:102C20008403416800225846FFF781FFB0BB641C53
:102C3000B442F2DB082F3DD2DFE807F004090D12A1
:102C4000181E2631A86880470BB0BDE8F08FA96830
:102C500003988847F8E7DDE90301AA689047F3E79E
:102C600003ACAB6894E807009847EDE703AEAC68A7
:102C700096E80F00A047E7E7AC68079803AE00901E
:102C800096E80F00A047DFE7DDE90701AC6803AE77
:102C9000CDE9000196E80F00A047D5E70AE007ABB1
:102CA000AC6893E807008DE8070003AE96E80F00D4
:102CB000A047C9E75046C7E7C068704700B5002184
:102CC0000B4B30225A54491CC9B20929FAD3417816
:102CD00001F00F01012903D9072901D9082901D8D9
:102CE000406800BD4068024900F0E5FD004800BDB5
:102CF00018170020084A002052F8201031B191F82E
:102D00006010890702D552F820007047401C00B2BD
:102D10000528F1DB00207047041700204A780020C6
:102D200002F00F02921E062A06D2DFE802F0030626
:102D30000A0D0D0F8868006870478868B0F90000B8
:102D4000704788680078704788687047886841686D
:102D500009B1006808470020704700002DE9F05FC6
:102D60005FEA0108054648D0A86B18244FF0000917
:102D700010F47F4F03D000246FF0FF000AE010F43E
:102D80007F0F02D00824264804E0000E03D0102450
:102D90004FF07F4081460026B346D5F858A030E07A
:102DA0000AEB0617787800F00F00092827D139467A
:102DB0002846FFF7EEFC10BB7868AA6B00EA090111
:102DC00091421CD1FF2303FA04F1084008FA04F1F0
:102DD000884214D10A434FF00008AA632CB1A4F131
:102DE000080178688B40184209D10AEB0610816807
:102DF00009B128468847C5F838B0BDE8F09F761C71
:102E000036B2B5F85C00B042CADCB8F1000FF4D0BD
:102E100041462846C5F838B0BDE8F05F00F08ABAF0
:102E20000000FFFF10B50C460346FFF763FF0028C4
:102E30000BD0012B05D008DD6168BDE8104000F023
:102E400067BDBDE8104000F05FB910BD70B500254A
:102E50000446002918DDB4F95420A2F10100A4F8B9
:102E60005400B4F85010B4F85200814201D90B4616
:102E700000E003465B429A4212DC814200D90846D8
:102E80004042A4F854000BE009DAB4F85400401CA6
:102E900000B2A4F85400002802DDA4F8545070BD1C
:102EA0002046FFF79DFCB4F95400C0B1B4F85210AD
:102EB00008440521401D90FBF1F201FB120004EBD8
:102EC0008000C16B206900F047FCA0810028E6D09B
:102ED000E08120462169BDE8704000F0B3BDA581C6
:102EE000E58170BD70B500250446A0F85450B0F8D7
:102EF000500058B1B4F85200216900B9052004EB24
:102F00008000806BFDF7B6FA00281ED0B4F852009E
:102F1000216904EB8000C06B00F01EFC20B1B4F806
:102F20005200401CA4F85200B4F85000401C80B27B
:102F3000A4F85000052802D90520A4F85000B4F8E0
:102F40005200052801D3A4F8525070BD10B50446B4
:102F50000020A081E0810B46206094F8601041F0D1
:102F6000010184F860100621B2FBF1F12361A18612
:102F7000A4F85400A4F85000A4F85200A28E411CFA
:102F800002FB013204EB8000C26308B20528F5DBC6
:102F900011481249A065081A0009A4F85C001049FC
:102FA000002051F820209AB1401C00B20528F8DB1F
:102FB00000230CA12046A26D00F031FA0146204604
:102FC00000F062FA2046BDE81040012100F0CCBCC0
:102FD00041F82040ECE70000404E0008604F000838
:102FE000041700206C65747465720000F8B504461F
:102FF0008089A28E521E90420EDB354841682046E1
:1030000000F020FD0121204600F0AEFC20462169A1
:10301000BDE8F84000F016BDE2890025824217D1D4
:10302000236900F10102A2811954A2892069855403
:10303000E08900F10100E08194F86000C00700D150
:103040002A218DF80010A26E012168469047F8BD34
:10305000FDD2801A00B206E0E38922691344421EC1
:103060009E5CC65410B20028F6DCE0892369421C3D
:10307000E2811954A0892169401C80B2A0810D54BD
:10308000E089401E05B20FE094F86000C00702D04E
:103090002069405D00E02A208DF80000A26E012129
:1030A000684690476D1C2DB2A089A842ECDCE189EE
:1030B00080B2401A05B2082607E08DF80060A26EC3
:1030C0000121684690476D1E2DB2002DF5DCF8BD3C
:1030D0009400002010B5FFF70DFE002803D0BDE8D6
:1030E000104000F0B1B810BD38B50446C0890028C2
:1030F00009D008208DF80000A26E01216846904793
:10310000E089401EE08138BD2DE9F0410646876D1B
:103110000F488168304600F095FC002411E007EB71
:103120000415687800F00F00012808D829463046B9
:10313000FFF72FFB18B92946304600F00BF8641C46
:1031400024B2B6F85C00A042E9DCBDE8F0810000E2
:1031500094000020F8B505460E460846FFF7AEFD80
:103160000146284600F06EFCC0F1160004B2002CA7
:1031700000DC042420278DF80070AA6E0121684627
:103180009047641E24B2002CF5D170782A4900F0D3
:103190000F00012801D8096C0CE0072801D8496C00
:1031A00008E0082801D8896C04E0092801D8C96C16
:1031B00000E0096D284600F045FC20A1284600F0FB
:1031C00041FC07240127307807FA04F1084201D0B6
:1031D000782000E02D208DF80000AA6E01216846BD
:1031E0009047641E64B2002CEDDA14A1284600F06A
:1031F00029FC3046FFF760FDAC6E03460021ACB100
:1032000002E0491C89B2401C02781AB10D2A01D093
:103210000A2AF6D1242907D924211846A047AA6EE4
:10322000032107A0904701E01846A0472846BDE8C3
:10323000F84004A100F006BC94000020202000000B
:103240002E2E2E000D0A00002DE9F0410646876D56
:1032500010484169304600F0F5FB002413E007EB0D
:103260000415687800F00F0008280AD9092808D842
:1032700029463046FFF78DFA18B929463046FFF740
:1032800069FF641C24B2B6F85C00A042E7DCBDE82C
:10329000F0810000940000202DE9F0410646876D82
:1032A00010480169304600F0CDFB002413E007EB25
:1032B0000415687800F00F0007280AD9082808D8F4
:1032C00029463046FFF765FA18B929463046FFF718
:1032D00041FF641C24B2B6F85C00A042E7DCBDE804
:1032E000F0810000940000202DE9F0410646876D32
:1032F0000F48C168304600F0A5FB002412E007EB40
:103300000415687800F00F00801E052808D82946AB
:103310003046FFF73EFA18B929463046FFF71AFF44
:10332000641C24B2B6F85C00A042E8DCBDE8F08181
:103330009400002090F8602022F0040280F86020C1
:10334000FFF754BE08B5C1898289914209D2036949
:103350004A1CC281595C8DF80010826E01216846BA
:10336000904708BD2DE9F047064690F860000F46EB
:1033700040F0020086F860004878002406F114014D
:10338000020789460BD000F00F0001282ED0811EC5
:10339000052936D83946304600F008F937E00025CF
:1033A000A84616E006EB850460690178222904D15D
:1033B00080F800806069401C6061FCF753FF80B2B8
:1033C0006169401E0A5C222A01D101F800806D1C4F
:1033D000ADB2F08EA842E5D8BA68F08E4946904763
:1033E0000AE02146304600F0EDFA10E00B46F28E7E
:1033F00039463046FFF7F7FB044678788006F0D56B
:1034000005E0082803D13946304600F03DF816F8AB
:10341000600F20F0020030702046BDE8F0872DE9F3
:10342000F0478A468146B0F85C10806D9846101AC5
:10343000A1EB1010164687B2002419E006EB041524
:10344000687800F00F00092810D029464846FFF799
:10345000A0F958B92846FFF731FC0146B8F1000041
:103460000BD002465046FCF71CFF50B1641CA4B2BE
:10347000BC42E3D30020BDE8F0875046FCF7FAFFDA
:10348000F3E706EB0410F6E770B5044601608868C0
:103490000D46F8B1FCF7E6FEE0B1E08E022804D359
:1034A000A169A868FCF7E6FFA0B194F8600020F0DD
:1034B00001000B4D84F860002046A96B00F0C2FAB1
:1034C00094F86000C0070AD020462968BDE8704023
:1034D00000F0B8BA94F8600040F00100E9E770BD70
:1034E000940000202DE9F0410E460746FFF702FC4C
:1034F000041E16D000233946A26DFFF790FF0E4D33
:10350000010010D0487800F00F00801E06280CD370
:103510003946204600F096FA696A204600F092FA91
:103520000020BDE8F081A96AF7E732462046BDE8F1
:10353000F04100F003B800009400002070B505468B
:103540000C4648781849430601D5096A18E000F08E
:103550000F00801E062821D2DFE800F00306090CC8
:103560001116A068026019E0A068028016E0A06849
:10357000027013E01146A06800F0EEF80EE0C96991
:10358000284600F05FFA09E0A068836833B100685C
:1035900010B11146984701E0104698472146284649
:1035A000BDE8704000F002B894000020FEB505466A
:1035B00022A00C4607C88DE8070021462846FFF7E1
:1035C000ADFB06462846616800F03CFA1EA128467D
:1035D00000F038FA607800F00F00052823D0694623
:1035E000304600F043F9C0F10B006C460119284643
:1035F00000F028FA15A1284600F024FA0020302116
:103600002154401C00B20B28FADB6946304600F01A
:1036100052F96946284600F015FA0EA1284600F036
:1036200011FA3046FEBD0CA1284600F00BFA3146D7
:10363000284600F007FA08A1ECE7000030303030EF
:103640003030303030303000203D20002C203078B9
:10365000000000000D0A0000220000002DE9FF4FCD
:1036600093460126002284B09A46DDF844E0009299
:1036700001920292134614461146039204E000257B
:103680004BF82150491C09B27145F8DB0021DFF8E5
:10369000A0C045E08BB9425C524509D0012E07D14C
:1036A000744505DA45184BF824500026641C04E0E4
:1036B000524501D0202A00D196B1455C00220DEB85
:1036C0000309ABB10CEB42077F78BD4210D119F86A
:1036D000017C1CF8128047450AD15B1EDBB216E064
:1036E0000022425442185278202A17D0012615E0B1
:1036F0001CF81270BD4206D1FFB20DF803705B1CBE
:1037000003F00F0303E0521C12F0FF02D9D05C2D2E
:1037100004D1421852780AB1491C89B2491C89B2B5
:10372000059A9142B6D308B02046BDE8F08F00005C
:103730009000002030B505460020024605E09C427E
:1037400009D1401C521C80B292B2AC5C002C02D059
:103750008B5C002BF3D130BD0346002002E01A54ED
:10376000401C80B20A5C002AF9D10021195470472C
:103770002DE9F05F0446878E4FF0000980894D46A1
:1037800038B12269CB465E4602F800B0D4F858A0A2
:103790003AE02046FFF7B8FC2046BDE8F05F012183
:1037A00000F0E2B80AEB061188462046FEF7F1FF6A
:1037B00040BB4046FFF782FA01462069FFF7BAFF97
:1037C000A18988421ED1CDB1012D03D125A120466A
:1037D00000F038F90AEB091949462046FFF7BAFC10
:1037E0004046FFF76BFA80464846FFF767FA4146C6
:1037F000FFF7A0FF874200D8384607466D1C1FFA26
:1038000086F9ADB2761C36B2B4F85C00B042C9DCC1
:10381000002D25D0012D02D12046FEF7E1FF0AEB55
:1038200009100646FFF74AFA01462069FFF794FFA0
:10383000A081012D08D931462046FFF78BFC0121DC
:10384000204600F091F8A781A289216901F802B011
:10385000A089E08120462169BDE8F05F00F0F2B860
:10386000BDE8F09F0D0A0000FFF778BA30B50B23D2
:10387000021E00DA42420024CC720A2409E092FBC4
:10388000F4F504FB152592FBF4F25B1EDBB2303538
:10389000CD54002AF3D1002802DA4FF02D0002E0C7
:1038A00005D14FF03000A3F10103DBB2C854C3F1DE
:1038B0000B0040B230BD082300220A720AE000F07B
:1038C0000F02092A01D9573200E030325B1EDBB209
:1038D0000009CA540028F2D1C3F1080040B2704771
:1038E0000121FFF7B3BA10B5FFF704FA002803D09F
:1038F000BDE81040FFF7D0BC10BD10B5FFF7FAF9D6
:10390000002803D0BDE81040FFF7EEBC10BD00005A
:1039100070B505460023826DFFF781FD0400104855
:1039200017D0C16A284600F08DF82046FFF7C6F987
:103930000146284600F086F80AA1284600F082F8E1
:103940002046FFF7B9F90146284600F07BF805A1AB
:1039500000E081692846BDE8704000F073B80000BF
:10396000940000200D0A000010B5044690F8600095
:10397000C00719D019B10EA1204600F063F82068E5
:103980004168204600F05EF80AA1204600F05AF88F
:10399000A16801B908A1204600F054F807A120460B
:1039A000BDE8104000F04EB80548016BF7E7000095
:1039B0000D0A00003A0000002F0000002420000043
:1039C00094000020FEB5064615A00D4607C88DE8F8
:1039D000070016A1304600F035F869462846FFF783
:1039E00045FFC0F10B006C460119304600F02AF883
:1039F00011A1304600F026F800223020A054521CBD
:103A000012B20B2AFADB69462846FFF754FF6946D3
:103A1000304600F017F80AA1304600F013F8FEBD5A
:103A200030303030303030303030300052657475E6
:103A3000726E3A20000000002C2030780000000058
:103A40000D0A000010B5836E0C4600221BB9002041
:103A500010BD521C92B211F8010B0028F9D1114689
:103A60002046984780B210BD10B510B1017A0229E6
:103A700002D372B6FCF7B2FD5022EFF3118382F34A
:103A80001188BFF34F8FBFF36F8F8A00491C0172FB
:103A9000835010BD10B528B1017A491EC9B2017218
:103AA000022902D372B6FCF799FD50F8210080F389
:103AB000118810BD08B500F03BF818480068C168CF
:103AC00041F01001C160164816498022008800EBC1
:103AD000801001EB40011148FDF745FC124C4FF0FE
:103AE000FF36002532466946206900F035FB012883
:103AF000F8D10098B0F880000028F3D0256006E0E7
:103B0000095C0A48FFF7B0FE2068401C206000995D
:103B10002068B1F880208242E4DDF1E7C80300208C
:103B20008C00002000160020000000202417002038
:103B3000064805494FF4007281660021416600F194
:103B40006C01FFF703BA0000513B00082417002066
:103B500010B50C460A4601464FF47A730248FDF749
:103B600074FE20B210BD0000C8030020D0E901326D
:103B700001699A60D0E901235A604A68824201D102
:103B800082684A60002202610868401E0860086876
:103B900070470000034B036003F15400086080206D
:103BA000106070477401002000F108014FF0FF32EF
:103BB000C0E90112C160016100210160704700216C
:103BC0000161704730B50C68621C02D000F1080238
:103BD00002E0026904E01A4653681D68A542FAD95A
:103BE00053684B6099608A60516008610168491CA4
:103BF000016030BD42684A6093688B609368596089
:103C0000916008610168491C01607047502080F391
:103C10001188BFF34F8FBFF36F8F0A494868401C6C
:103C2000486001280CD10848006810F0FF0F07D049
:103C3000502080F31188BFF34F8FBFF36F8FFEE7E3
:103C4000704700008000002004ED00E0084948684B
:103C500028B1401E486001D180F311887047502080
:103C600080F31188BFF34F8FBFF36F8FFEE7000023
:103C70008000002070B500282AD0164DA0F108045D
:103C800060686969084207D1502080F31188BFF34A
:103C90004F8FBFF36F8FFEE722683AB1502080F359
:103CA0001188BFF34F8FBFF36F8FFEE788436060CB
:103CB00000F0D0F860686968084468602046FEF744
:103CC00057FC2869401C2861BDE8704000F06EBCBC
:103CD00070BD0000600000204FF0E0200021016175
:103CE000816105494FF47A720968B1FBF2F1491E0E
:103CF00041610721016170472000002010B5FCF7E9
:103D00008DFA114910280ED300F1E02090F8F0034D
:103D10000A78904207D2502080F31188BFF34F8F6A
:103D2000BFF36F8FFEE709480068896800F4E06020
:103D3000884207D9502080F31188BFF34F8FBFF31B
:103D40006F8FFEE710BD0000800000200CED00E04A
:103D500010B5020014D00F48006B38B1502080F32A
:103D60001188BFF34F8FBFF36F8FFEE700F072F83B
:103D700000211046FEF74CFA00F018FC002807D18D
:103D800005494FF080500860BFF34F8FBFF36F8F2E
:103D900010BD00002400002004ED00E002490A6A82
:103DA0000260C96841607047240000200149012079
:103DB000C86170472400002010B50C4650B1094975
:103DC00009681831FFF7FEFE2046BDE810400121CA
:103DD000FEF71EBA502080F31188BFF34F8FBFF358
:103DE0006F8FFEE72400002010B586B000240394F6
:103DF00005AA04A903A80494FFF7CCFEDDE903019A
:103E00000094CDE9011000230EA11048059A00F09E
:103E1000A6FA0F490028C86211D0502080F31188FB
:103E2000BFF34F8FBFF36F8F4FF0FF3088620120D9
:103E30004861CC6006B0BDE8104000F041B806B063
:103E400010BD000049444C450000000065240008F6
:103E5000240000200248016B491C016370470000E8
:103E600024000020144A106B10B10120D06170476B
:103E70000020D06110691149B0FA80F0C0F11F0034
:103E800000EB800051F820306BB101EB800000F1B5
:103E90000803416849684160994201D1496841601D
:103EA000C86810607047502080F31188BFF34F8FAF
:103EB000BFF36F8FFEE700002400002010050020F4
:103EC0001CB5264908780190FF20087008788DF805
:103ED00000009DF800009DF8002000F0F0009042E6
:103EE00007D0502080F31188BFF34F8FBFF36F8F3F
:103EF000FEE79DF800001A4C00F0500020700720EB
:103F0000A06006E0401EA0609DF8000040008DF813
:103F100000009DF800000006A068F3D4032807D035
:103F2000502080F31188BFF34F8FBFF36F8FFEE7F0
:103F30004FF44070A060019808700A48016841F48D
:103F400070010160016841F070410160FFF7C4FE3B
:103F500000206060FCF72CF900201CBD00E400E0AC
:103F60008000002020ED00E0F8B517460E46050061
:103F700013D005FB06F04830FEF788FB04000AD09A
:103F8000002084F8460004F148023B4631462846AA
:103F90000094FEF795FA2046F8BD502080F3118872
:103FA000BFF34F8FBFF36F8FFEE738B5049D18B195
:103FB00053B1CAB181B120E0502080F31188BFF322
:103FC0004F8FBFF36F8FFEE7502080F31188BFF350
:103FD0004F8FBFF36F8FFEE7502080F31188BFF340
:103FE0004F8FBFF36F8FFEE739B1502080F31188F8
:103FF000BFF34F8FBFF36F8FFEE748241C460123AA
:1040000084F846302B460094FEF75AFA204638BD15
:1040100070B50D46040025D0FFF7F8FDD4E90F2058
:10402000216802FB0011A1600021A1632168616089
:104030000A46D4E90F01401E00FB0121E160214640
:104040004FF0FF3001F8440F487004F110008DB1BB
:10405000FFF7AAFD04F12400FFF7A6FDFFF7F6FD28
:10406000012070BD502080F31188BFF34F8FBFF344
:104070006F8FFEE721690029F0D000F05DFA00287B
:10408000ECD004494FF080500860BFF34F8FBFF36E
:104090006F8FE3E704ED00E02DE9F0471F469046FF
:1040A0008946040003D0B9F1000F08D011E0502078
:1040B00080F31188BFF34F8FBFF36F8FFEE7206C43
:1040C00038B1502080F31188BFF34F8FBFF36F8F4B
:1040D000FEE7022F0AD1E06B012807D0502080F3C1
:1040E0001188BFF34F8FBFF36F8FFEE7FFF706FE18
:1040F0005020EFF3118680F31188BFF34F8FBFF389
:104100006F8FA06BE16B884206D3022F04D0002092
:1041100086F31188BDE8F08794F94550A06B3A46C4
:1041200049462046FEF727F9681C04D06D1C84F828
:1041300045500120ECE7606A0028FAD004F1240021
:1041400000F0FAF90028F4D0B8F1000FF1D0012105
:10415000C8F80010EDE700002DE9F74783B08A4664
:1041600004004FF0000603D0BAF1000F08D011E0B0
:10417000502080F31188BFF34F8FBFF36F8FFEE79E
:10418000206C38B1502080F31188BFF34F8FBFF3FC
:104190006F8FFEE700F010F9DFF8F09000274FF086
:1041A000805848B9059838B1502080F31188BFF382
:1041B0004F8FBFF36F8FFEE7FFF728FDA56BC5B1EB
:1041C00051462046FEF7C4F86D1EA563206950B124
:1041D00004F1100000F0B0F928B1C9F80080BFF375
:1041E0004F8FBFF36F8FFFF731FD012006B0BDE8A1
:1041F000F087059808B11EB106E0FFF727FD27E01C
:104200006846FFF7CBFD0126FFF720FDFFF722FEF2
:10421000FFF7FCFC94F94400401C01D184F8447081
:1042200094F94500401C01D184F84570FFF70EFD5C
:1042300005A9684600F02CF8002820460AD0FEF7B1
:10424000EFF900F0B3F92046FEF7B8F90028B3D033
:104250000020CBE7FEF7B2F990B104F124000599F4
:10426000FFF7AAFD2046FEF7DBF900F09FF90028D2
:10427000A2D1C9F80080BFF34F8FBFF36F8F9BE7C8
:104280002046FEF7CDF900F091F995E704ED00E046
:104290002DE9F0410C46050011D0C4B1FFF7B6FC82
:1042A000174EF1686B682268C81A571C17D02F6820
:1042B000366AB74219D08B4217D8012410E050203B
:1042C00080F31188BFF34F8FBFF36F8FFEE750204D
:1042D00080F31188BFF34F8FBFF36F8FFEE7002489
:1042E000FFF7B4FC2046BDE8F081824205D9101AE0
:1042F00020602846FFF752FDF1E700202060DCE750
:10430000240000202DE9FF5F8346DDE90E879946F2
:1043100016468A469000FEF7B9F905001CD05420D5
:10432000FEF7B4F9040014D00020256384F851008E
:10433000CDE90240CDE900874B463246514658460A
:10434000FEF7C9F82046FDF79BFF012004B0BDE849
:10435000F09F2846FFF78EFC4FF0FF30F6E7F0B5F0
:1043600085B00546DDE90B040A9EA8B1E4B15427E7
:1043700000972063022084F851000020CDE902401C
:1043800004AF2846CDE90067FEF7A5F82046FDF703
:1043900077FF049805B0F0BD502080F31188BFF37B
:1043A0004F8FBFF36F8FFEE7502080F31188BFF36C
:1043B0004F8FBFF36F8FFEE70548416919B1006B5E
:1043C00018B100207047012070470220704700009C
:1043D000240000202DE9F0412F4F0026386B28B132
:1043E000B869401CB8613046BDE8F081FD686D1CBD
:1043F000FD6013D1786B006838B1502080F31188CC
:10440000BFF34F8FBFF36F8FFEE7786BB96B7963A4
:10441000B863386A401C3862FEF7DEF8B86ADFF825
:104420007C80854209D3786B0068A0B1786BC06846
:10443000C4686068854211D2B8623868C06A00EB0F
:10444000800158F82100012800D90126F8690028C8
:10445000C9D00126C7E74FF0FF30EDE7201DFFF779
:1044600085FBA06A18B104F11800FFF77FFBE06A32
:1044700001213A6981401143396100EB800108EB69
:104480008100211DFFF7B6FBE06A3968C96A8842DE
:10449000C9D30126C7E70000240000201005002032
:1044A00070B504004FF0000041D0214D29688C42C6
:1044B00007D0502080F31188BFF34F8FBFF36F8F69
:1044C000FEE7A16C71B1491EA164636CE26A9A4275
:1044D0002DD000292BD1201DFFF748FB15490122C3
:1044E00040B112E0502080F31188BFF34F8FBFF32B
:1044F0006F8FFEE7E06A00EB800351F8233023B9A9
:104500002B6902FA00F083432B61606CE062C0F11A
:104510000700A061E06A2B6982401A432A6100EB20
:10452000800001EB8000211DFFF764FB012070BDBE
:1045300024000020100500202DE9F041C068C46867
:10454000ACB104F118000746FFF710FB154D286BBE
:104550000126A0B139461448FFF74CFBE06A2968F0
:10456000C96A88421CD90120EE61BDE8F081502063
:1045700080F31188BFF34F8FBFF36F8FFEE7201DCD
:10458000FFF7F4FAE06A2A6906FA00F1114329619B
:10459000054900EB8000B43901EB8000211DDBE709
:1045A0000020E2E724000020C40500202DE9F047A8
:1045B0002C4D00242746286B38B1FFF727FB286BCA
:1045C000401E2863286B40B146E0502080F31188DC
:1045D000BFF34F8FBFF36F8FFEE7A8682249012614
:1045E000D0B3A1F1B4098846D8F80010E9B1D8F8E1
:1045F0000C00C46804F11800FFF7B8FA201DFFF79B
:10460000B5FAE06A2A6906FA00F11143296100EB64
:10461000800109EB8100211DFFF7ECFAE06A2968AF
:10462000C96A8842E0D3EE61DEE70CB1FDF7D4FF42
:10463000AC693CB1FFF7CEFE00B1EE61641EF9D16A
:104640000020A861E86938B10849012738070860E7
:10465000BFF34F8FBFF36F8FFFF7F8FA3846BDE80F
:10466000F087000024000020C405002004ED00E0D5
:104670004FF47F0C1CEAD0121EBF1CEAD11392EA41
:104680000C0F93EA0C0F00F0858090EA010F48BFF1
:1046900042F4807240F4000C41F400002CF07F41A1
:1046A00020F07F4000B58142A2EB03020FF2081C0C
:1046B000ACEB504EC0F100009EF800E04FEA4E0E09
:1046C00000FB0EFC38BF49004FEA2C1C02F5FA0231
:1046D0000CFB0EF34FEACE1E4FEA112C4FEAC1211C
:1046E0000EEB635E42EB22420EFB0CFC4FEA1C53C6
:1046F00000FB03114FEA112C4FEA01310EFB0CFCB9
:104700004FEADC4C00FB0C11C14228BF09184CEBEE
:1047100003335DF804EB10EB410143EBC250B2F5FB
:104720007C0F38BF704729D512F0F00F1CBF00F185
:10473000C04000F0004070470081828384858687F6
:1047400088898B8C8D8E8F919293959697999A9C50
:104750009D9FA0A2A3A5A7A8AAACAEB0B2B3B5B7BF
:10476000B9BCBEC0C2C5C7C9CCCED1D4D7D9DCDF95
:10477000E2E6E9ECF0F3F7FAFE0000004FEA400C45
:104780000CF1807CBCF17E4F28BF7047B0F1C04077
:1047900000F023B990EA010F0CEAD11348BF42F4AC
:1047A0008072624538BF634507D213F47F0F16D07D
:1047B00080EA010000F00040704710B500F0C7F833
:1047C000097EFC3E00F005B880EA010000F00040E0
:1047D000704780EA010000F0004000F0FEB812F4DB
:1047E0007F0F04BF0248704780EA010000F0F5B86F
:1047F0000000C07F10F0004148BF4042B0FA80F393
:1048000010FA03F2C3F19D030BD051EAC35101EB3F
:104810001220530638BF704700F1010008BF20F096
:1048200001007047B0FA80F310FA03F2C3F19D0360
:104830000AD0D90501EB1220530638BF704700F1AA
:10484000010008BF20F00100704700004FF47F0C0A
:104850001CEAD0121EBF1CEAD11392EA0C0F93EA95
:104860000C0F00F0478090EA010F48BF42F48072BD
:104870004FF0004C4CEA00204CEA012102EB03020D
:10488000A0FB0113A2F50002002918BF43F00103A9
:104890005B0028BF4FEA330342EB22425FEA132C4E
:1048A0004CEBC2502EBFBCEB436FB2F57C0F704790
:1048B0004FEA036CBCF1004F08BF20F00100B2F5D5
:1048C0007C0F38BF70470BD582F0FF0212F5803F96
:1048D000C8BF704700F1C040D8BF00F0004070472B
:1048E00000F5000C5FEA4C0C48BF7047B0F1C040C7
:1048F00000F073B890EA010F0CEAD11348BF42F4FC
:104900008072624538BF634504D280EA010000F03E
:104910000040704710B500F01AF800BF8900013E52
:1049200000F007B800F009B85FEA410C5FEA1C6CC0
:1049300008D080EA010000F050B85FEA400C5FEA5E
:104940001C6CF6D14FF00040A0F5800070470EF1CE
:10495000020E2EF0030E5EF8044B244204D44FEAFC
:104960004102B2F17F4F11D84FEA4003B3F17F4FBC
:104970000CD80ED14FEAD07CB2F17F4F0CEB4C0C2F
:104980000CF1020C08BF4CEBD17C04E04FF0080C9A
:1049900001E04FEAD17C0CEB4C0324FA03F404F061
:1049A0000704B4F1040C06D20EEB840CBDE81040F1
:1049B0004CF0010C6047DFE80CF0070802024FF0F2
:1049C0000040A0F5800010BD0846420018BFD2F19B
:1049D000807288BF00F0004010BDFF2141EAD05036
:1049E000C005704705000000040000000000000042
:1049F00000000000584B00086D1A0008FEFF000080
:104A00000000000080000000000000000000000026
:104A1000644B0008751A0008000000000000000048
:104A2000800000000000000000000000704B000843
:104A3000B53A00080200000000000000000100007C
:104A40000000000000000000010202030405060748
:104A500008090A0B0C0D0E0F1010000000000000DA
:104A6000000001020304060708090000000001021B
:104A700003046C6574746572000064656661756C2E
:104A80007420757365720073657456617200736586
:104A9000742076617200757000646F776E007269C1
:104AA000676874006C6566740074616200626163BB
:104AB0006B7370616365006261636B7370616365E2
:104AC0000064656C65746500656E74657200656E82
:104AD0007465720068656C700073686F7720636F2F
:104AE0006D6D616E6420696E666F0D0A68656C702D
:104AF000205B636D645D007573657273006C697330
:104B00007420616C6C207573657200636D64730052
:104B10006C69737420616C6C20636D6400766172E3
:104B200073006C69737420616C6C20766172006B29
:104B3000657973006C69737420616C6C206B6579A6
:104B400000636C65617200636C65617220636F6EF7
:104B5000736F6C650000000064656661756C745469
:104B600061736B006D61696E5F7461736B0000004F
:104B70007561727452785F7461736B000D0A436FD4
:104B80006D6D616E64204C6973743A0D0A0000000B
:104B90000D0A566172204C6973743A0D0A000000C8
:104BA0000D0A55736572204C6973743A0D0A000042
:104BB0000D0A4B6579204C6973743A0D0A000000A8
:104BC000436F6D6D616E64206E6F7420466F756EFD
:104BD000640D0A000D0A5761726E696E673A2043D0
:104BE0006F6D6D616E6420697320746F6F206C6FE0
:104BF0006E670D0A00000000206973206E6F74203C
:104C000061207661720D0A0063616E2774207365FE
:104C1000742072656164206F6E6C79207661720D0C
:104C20000A00000063616E27742073657420706F42
:104C3000696E7465720D0A000D0A205F2020202025
:104C400020202020205F2020205F202020202020E6
:104C50002020202020202020202020205F20202015
:104C6000202020202020205F205F200D0A7C207C37
:104C7000202020205F5F5F7C207C5F7C207C5F2089
:104C80005F5F5F205F205F5F2020205F5F5F7C2091
:104C90007C5F5F2020205F5F5F7C207C207C0D0A92
:104CA0007C207C2020202F205F205C205F5F7C20E8
:104CB0005F5F2F205F205C20275F5F7C202F205FBD
:104CC0005F7C20275F205C202F205F205C207C20E1
:104CD0007C0D0A7C207C5F5F7C20205F5F2F207C26
:104CE0005F7C207C7C20205F5F2F207C2020202088
:104CF0005C5F5F205C207C207C207C20205F5F2F1D
:104D0000207C207C0D0A7C5F5F5F5F5F5C5F5F5F84
:104D10007C5C5F5F7C5C5F5F5C5F5F5F7C5F7C2077
:104D20002020207C5F5F5F2F5F7C207C5F7C5C5F4E
:104D30005F5F7C5F7C5F7C0D0A0D0A4275696C6465
:104D40003A20202020202020417567203130203259
:104D50003032352031363A31333A33310D0A566527
:104D60007273696F6E3A2020202020332E322E3449
:104D70000D0A436F707972696768743A20202028A1
:104D800063292032303230204C65747465720D0A0C
:104D9000000000000D0A70617373776F7264206504
:104DA00072726F720D0A0000566172206E6F74206D
:104DB000466F756E740D0A001B5B324B0D000000D0
:104DC000434D4420000000005641522000000000E6
:104DD0004B45592000000000636F6D6D616E6420CB
:104DE00068656C70206F662000000000506C656183
:104DF000736520696E7075742070617373776F725C
:104E0000643A00004E4F4E45000000001B5B324AE2
:104E10001B5B314800000000555345520000000064
:104E2000644F000800000020E8000000280100088E
:104E30004C500008E8000020081F00004401000852
:104E400000080000724A0008794A00087A4A0008FF
:104E500000210000874A0008E53400088E4A000857
:104E60000009000000415B1BE1380008964A000879
:104E70000009000000425B1B1D290008994A000838
:104E80000019000000435B1B453300089E4A0008E0
:104E90000019000000445B1BE9300008A44A000828
:104EA000000900000000000971370008A94A000845
:104EB00000190000000000088D270008AD4A000816
:104EC000001900000000007F8D270008B74A000885
:104ED000001900007E335B1B25280008C14A00082A
:104EE000001900000000000A25290008C84A00082F
:104EF000001900000000000D25290008CE4A000816
:104F000000200000D44A0008252E0008D94A0008D5
:104F100000210000F74A0008E7380008FD4A0008B1
:104F2000002100000B4B000811280008104B00085E
:104F3000002100001D4B0008FB380008224B000830
:104F4000002100002F4B0008D5300008344B00082A
:104F500000210000414B0008C5270008474B00080E
:104F6000DDD0FFFF00000000000000000000000096
:104F70000000000000000000010000001000000020
:104F80000000000000127A00000000000000000095
:104F90000000000000000000000000000000000011
:104FA0000000000000000000000000000000000001
:104FB00000000000000000000000000000000000F1
:104FC00000000000000000000000000000000000E1
:104FD00000000000000000000000000000000000D1
:104FE0000000000000000000AAAAAAAA0000000019
:104FF0000000000022220000384C0008D44B0008BA
:105000007C4B0008904B0008A04B0008B04B0008F8
:10501000C04B0008244C0008084C0008F84B00085E
:10502000A84D0008D84D0008EC4D0008944D00082C
:105030000C4E0008B84D0008C04D0008C84D0008CF
:0C504000184E0008D04D0008044E000877
:04000005080000ED02
:00000001FF
