:020000040800F2
:10000000081E0020D1020008F331000877300008F4
:10001000F1310008151D0008A1370008000000009C
:10002000000000000000000000000000390200088D
:100030005B1D0008000000007D020008053200087A
:10004000EB020008EB020008EB020008EB020008DC
:10005000EB020008EB020008EB020008EB020008CC
:10006000EB020008EB020008EB020008EB020008BC
:10007000EB020008EB020008191D0008251D00080E
:10008000EB020008EB020008EB020008EB0200089C
:10009000EB020008EB020008EB020008EB0200088C
:1000A000EB02000891320008EB020008EB020008A6
:1000B000EB020008EB020008EB020008EB0200086C
:1000C000EB020008EB020008EB020008EB0200085C
:1000D000EB02000895370008EB020008EB0200086D
:1000E000EB020008EB020008EB02000800F002F847
:1000F00000F092F80AA090E8000C82448344AAF130
:100100000107DA4501D100F087F8AFF2090EBAE82D
:100110000F0013F0010F18BFFB1A43F0010318473B
:10012000784C0000984C0000103A24BF78C878C181
:10013000FAD8520724BF30C830C144BF04680C60ED
:10014000704700000023002400250026103A28BF35
:1001500078C1FBD8520728BF30C148BF0B60704739
:100160006E2900F04182702900F08B83662904F02B
:100170003785652904F03485672904F031856129C4
:1001800004F0308503681B0A28BF41F0800169290B
:1001900000F0EE81642900F0EB81752900F0E88120
:1001A0006F2900F01883782900F05783E92900F0BF
:1001B000B382E42900F0B082F52900F0AD82EF2986
:1001C00000F01583F82900F056830368DB0928BF87
:1001D00041F08001632901F05980732901F05E80AC
:1001E000E32901F06980F32901F06E800020704757
:1001F0001FB501F0BBF804000020002104F0DAFC78
:10020000401C60600020002104F0BEFCE06000F0B3
:100210003BF91FBD10B510BD01F07AF81146FFF78C
:10022000E7FF03F077FB01F057F903B4FFF7F2FFA4
:1002300003BC01F0A1F90000224B19680868B0E87E
:10024000F00F80F30988BFF36F8F4FF0000080F349
:1002500011884EF00D0E704700000000064800683F
:10026000006880F3088862B661B6BFF34F8FBFF3B2
:100270006F8F00DF00BF00BF08ED00E0EFF30980E3
:10028000BFF36F8F0F4B1A6820E9F00F106008B5AD
:100290004FF0500080F31188BFF34F8FBFF36F8F83
:1002A00004F06CF84FF0000080F31188BDE80840BE
:1002B00019680868B0E8F00F80F30988BFF36F8F02
:1002C000704700BF20000020EFF30580704700005A
:1002D0000948804709480047FEE7FEE7FEE7FEE7DA
:1002E000FEE7FEE7FEE7FEE7FEE7FEE70448054916
:1002F000054A064B704700008D320008ED000008EB
:1003000008180020081E0020081A0020081A0020E3
:100310007CB51D4616460C00009001D02044401EBE
:10032000074B7B442A4669460190304600F075F938
:1003300005461CB10020694600F082F928467CBDC4
:1003400025030000032A40F2308010F0030C00F077
:10035000158011F8013BBCF1020F624498BF11F8FF
:1003600001CB00F8013B38BF11F8013BA2F10402B8
:1003700098BF00F801CB38BF00F8013B11F0030330
:1003800000F02580083AC0F0088051F8043B083A94
:1003900051F804CBA0E80810F5E7121D5CBF51F836
:1003A000043B40F8043BAFF30080D20724BF11F8B0
:1003B000013B11F801CB48BF11F8012B24BF00F815
:1003C000013B00F801CB48BF00F8012B704710B586
:1003D000203AC0F00B80B1E81850203AA0E818503D
:1003E000B1E81850A0E81850BFF4F5AF5FEA027CFE
:1003F00024BFB1E81850A0E8185044BF18C918C06D
:10040000BDE810405FEA827C24BF51F8043B40F80D
:10041000043B08BF7047D20728BF31F8023B48BFF2
:1004200011F8012B28BF20F8023B48BF00F8012B30
:1004300070474FF0000200B51346944696462039A7
:1004400022BFA0E80C50A0E80C50B1F12001BFF48D
:10045000F7AF090728BFA0E80C5048BF0CC05DF8F3
:1004600004EB890028BF40F8042B08BF704748BF41
:1004700020F8022B11F0804F18BF00F8012B7047B5
:10048000704770477047000070B5064C7C44064DBD
:100490007D4403E0206820448047241DAC42F9D10C
:1004A00070BD0000544A0000544A000070B5044674
:1004B00085690068C10601D5302600E02026C00706
:1004C00007D070BDD4E9012130469047206A401C16
:1004D00020626D1EF6D570BD70B504468569007842
:1004E000C00707D170BDD4E9012120209047206AC0
:1004F000401C20626D1EF6D570BD09684A0501D505
:1005000040B27047C905FCD500B2704709684A057A
:1005100001D5C0B27047C905FCD580B2704770B52F
:100520000C460546012A05D02878800600D5EA69E0
:10053000002302E0012305E05B1C934202D2E05C51
:100540000028F9D1A869E618C01AA861286A1844D9
:1005500028622846FFF7AAFF04E0D5E9012114F834
:10056000010B9047B442F8D32846FFF7B5FF70BDA2
:100570002DE9F0410646002410687529314616A57C
:1005800010D0FFF7BAFF002802DA404213A507E0B7
:1005900031688A0701D512A502E0490704D511A5E3
:1005A000012401E0FFF7B2FF00210A2206F124072F
:1005B00009E0B0FBF2FCB0FBF2F302FB1C003030B0
:1005C00078541846491C0028F3D123462A46304661
:1005D000BDE8F04100F069BA000000002D00000005
:1005E0002B0000002000000011680268006A53051B
:1005F00001D508700AE0D30501D5088006E013068E
:1006000003D5C217C1E9000200E00860012070476D
:1006100001694A1C02610878704700B58FB0CDE9C6
:1006200001310021059105497944CDE903101146B6
:10063000684600F031F90FB000BD0000E5FFFFFF94
:100640000A6802F8010B0A607047D1E900239A4258
:1006500002D2531C0B601070704700002DE9FF5F41
:1006600015468A460446DFF8AC80F8440027D8E9EE
:1006700000103E46CDE9001010E03AF816106A4628
:1006800002A800F025FE411C07D02178890603D579
:10069000E269391891420DD80744761C207880060B
:1006A00002D5E069B84205DDAE42E6DB3AF8160055
:1006B0000028E2D1A069C01BA0612046FFF7F6FE2A
:1006C000D8E90010CDE90010002017E03AF8181022
:1006D0006A4602A800F0FCFDB0F1FF3F81460BD056
:1006E00000250DF1080B05E0D4E901211BF80500F8
:1006F00090476D1C4D45F7D308F10100B04280468C
:10070000E4DB206A384420622046FFF7E5FEBDE8BE
:10071000FF9F00000A4600002DE9F0418046D21DEF
:1007200022F007020025D2E90002F52915A614D00F
:10073000011E72F1000106DA0023D0EB030063EB27
:10074000020211A608E0D8F800108B0701D50FA609
:1007500002E0490701D50EA601251146002408F143
:10076000240704E000F05CF930323A55641C50EA8A
:100770000102F7D12B46324621464046BDE8F04102
:1007800000F093B9000000002D0000002B000000D5
:100790002000000030B4002100F1240408E002F041
:1007A0000705D208303542EA4372DB086554491C1C
:1007B00052EA0305F3D10468002310A2250707D5E8
:1007C000A40600D421B1C46901230DA2641EC46132
:1007D00030BC00F06AB910B5044621461068FFF736
:1007E00095FE02462046BDE810400023D2E7D21D08
:1007F00022F00701D1E90023CCE70000000000004F
:1008000030000000F0B40D460188090502D5214CE6
:100810007C4402E01F4C7C440E34002100F124068D
:1008200008E002F00F071209E75D42EA03721B09B4
:100830007754491C52EA0307F3D1027800231207C8
:1008400004D5702D06D009B1022311342246F0BC24
:1008500000F02BB901231034F8E770B504460D46BB
:1008600021461068FFF752FE024629462046BDE8A1
:1008700070400023C6E7D21D22F00703D3E900230E
:10088000C0E70368126843F0200303600823C361D4
:100890000023B7E76C4400002DE9F05F8946044669
:1008A0004FF0000ADFF874B1FB44C0F820A02046E6
:1008B000E1688847002874D0252806D0D4E90121B2
:1008C0009047206A401C2062F1E700265F462046E0
:1008D000E16888472028054607DB312D05D27819C5
:1008E00010F8200C08B10643F1E7B00701D526F057
:1008F0000406C4F81CA00027C4F818A02A2D09D0AB
:10090000284602F089FF38B304EB8708303DC8F869
:10091000185019E059F8041B204604EB8702916136
:10092000E1688847012F054618D1E069002820DAE0
:1009300026F020061DE0D8F8180000EB800005EB3B
:1009400040003038C8F818002046E168884705465E
:1009500002F062FF0028EED1012F0AD02E2D08D11F
:100960002046E16888477F1C0546022F46F0200696
:10097000C4DBA069002803DA404246F00106A0610A
:10098000F00701D026F010066C2D0BD0682D09D091
:100990004C2D39D06A2D35D0742D35D07A2D33D0E9
:1009A00016E038E0E1682F4620468847B842054601
:1009B00009D16C2F26D04FF48060E16806432046B1
:1009C0008847054604E06C2F1AD04FF48070064328
:1009D0000DB3A5F14100192802D8203546F4006670
:1009E0004A462946204626604E46FFF7B9FB80B1AD
:1009F00001280BD0F61D26F0070000F1080956E784
:100A00004020E4E78020D8E70020D6E706F104097B
:100A10004DE7284652E7206ABDE8F09FFC430000FE
:100A200030B5B0F10A024FEA900E71F100034EEAC0
:100A3000817EB0EB0E0061EB91014FEA101E4EEA91
:100A4000017E10EB0E0041EB11114FEA102E4EEA21
:100A5000016E10EB0E0041EB11214FEA104E4EEAF1
:100A6000014E10EB0E0041EB1141401841F1000125
:100A70004FEAD00040EA41704FEAD10110EB800507
:100A80004FEA810444EA907444EB01046D1944EB8D
:100A90000404521BA3414FF0000348BF0A3200D5A3
:100AA00030BD401C41F1000130BD2DE9F0470D463D
:100AB00099469246044600F124080168880604D548
:100AC000E06921F01001216000E00120A84201DD71
:100AD000471B00E00027A1697A1902EB0900081AF8
:100AE000A0612078C00602D42046FFF7DFFC002674
:100AF00008E0D4E901211AF806009047206A401C5A
:100B0000761C20624E45F4DB2078C0060AD52046CC
:100B1000FFF7CCFC06E0D4E9012130209047206AA1
:100B2000401C2062381EA7F10107F4DC07E0D4E97D
:100B3000012118F805009047206A401C2062281EF9
:100B4000A5F10105F3DC2046FFF7C6FC207800067E
:100B500002D50220BDE8F0870120FBE770472DE9B0
:100B6000FF4F0C461E464FF0FF378BB0D2E9000115
:100B7000DDF860800A908A46C1F30A5505B93D4602
:100B8000002108464FF00000BAF1000F00F44000C9
:100B900005DA00EB80004FF4400101EA50004FEA13
:100BA0009059B9F1010F00DDB9460A9850EA4A00A0
:100BB0000ED044F61050A5F2FF3545432F14B8F17E
:100BC000000F1ED07542291E1EDDC9F100021CE077
:100BD000B8F1010F4FF0000001D0302103E0F243E3
:100BE00005E02154401CB042FBDB304600220021CE
:100BF00021540B99C1F80880C1E900200FB0BDE86D
:100C0000F08FBD1B6D1CDEE74A4600DA694206A87C
:100C100000F0F0FB06AB93E8070003AB83E80700A6
:100C200050460A9900F0AEFC8DE80700A0F5005090
:100C30001F3800900398002D0ADD42F21F014A463A
:100C40000844002303A90390684600F017FF09E059
:100C5000A0F500504A461F38002303A903906846B8
:100C600000F021FF8DE807000004000C03D04FF0D6
:100C7000FF30410800E01046B8F1000F03D0002219
:100C8000009215461EE0751E05D4FFF7C9FE3032EE
:100C900062556D1EF9D5B3460122084302D00022E9
:100CA0007F1C04E02078302801D100227F1E002A1A
:100CB000099784D01DE0112D07DAFFF7B1FE30321D
:100CC00062556D1C50EA0102F5D1084302D000982C
:100CD000C8B10EE00021681E05E0235C625C63542D
:100CE0002254401E491C8142F7DBAB46A81B401E24
:100CF0000990002004F80B000B98099AC0F80880AE
:100D0000C0E9002B7AE711264FF0000857E72DE9DC
:100D1000F04F88460446D21D22F0070191B0D1E978
:100D20000001CDE90A0102F03CFD02460B98C00F1C
:100D300001D02D2007E02068810701D52B2002E09B
:100D4000202101EAC000032A099001D0072A05DB0F
:100D500003464146204600F00DFB0BE1207880065B
:100D600001D5E06900E00620B8F1650F814606D0A4
:100D7000B8F1660F18D0B8F1670F70D131E00020DC
:100D8000B9F1110F009001DB112301E009F101031A
:100D90000AAA01A90CA8FFF7E2FEDDE90C70002603
:100DA00009F10105834647E001204B4600904FF0D2
:100DB00000470AAA01A90CA8FFF7D1FEDDE90DB092
:100DC0000C995D46002610B909F101000D18B9EB28
:100DD000050003D4C0F1FF3609F10105A5EB0900B8
:100DE0002BE0B9F1010F01DA4FF001090020B9F150
:100DF000110F0090484601DD112300E003460AAAC6
:100E000001A90CA8FFF7ABFEDDE90C704D460026EA
:100E10008346207800070AD4AB4500DA5D4601A876
:100E2000012D04DD411911F8011C302907D04F456F
:100E300002DA17F1040F04DA012082460FE06D1E7A
:100E4000EEE7002F02DCED1B3E4403E0781CA842D5
:100E500000DD7D1CB81B00F1010A4FF0004720782F
:100E6000000703D4AA4501DB4FF0FF3A0021B7F198
:100E7000004F0DF143088DF8431024D002202B239E
:100E8000002F01DA7F422D230A21021EA0F101006A
:100E900000DC5FB197FBF1FC97FBF1F201FB1C7CDE
:100EA00017460CF1300C08F801CDEEE7A8F101006F
:100EB00003702188090501D5452100E06521A0F1D5
:100EC000010800F8011C09980FA9A1EB0807FF1DF4
:100ED00000B10120411901EBEA70A1693844081AF8
:100EE000401EA0612078C00602D42046FFF7DEFA3B
:100EF000099828B1D4E901219047206A401C20625A
:100F00002078C00622D52046FFF7D0FA1EE0002E3A
:100F100004DBB34502DD01A8805D00E03020D4E9A8
:100F200001219047206A401C2062761CAAF1010032
:100F30005FEA000A0AD100F019FAC0680168405C53
:100F4000D4E901219047206A401C2062281EA5F1A7
:100F50000105DCDC07E0D4E9012118F8010B90471A
:100F6000206A401C2062381EA7F10107F3DC2046EE
:100F7000FFF7B2FA032011B041E600002DE9F04F6F
:100F800004460D46D21D22F0070089B0D0E9009733
:100F90004846394602F005FC0246F80F01D02D23E1
:100FA00007E02068810701D52B2302E0202101EA18
:100FB000C0038DF820300BB1012000E00020032A8F
:100FC000824601D0072A04DB2946204600F0D2F9E8
:100FD0003FE12078800601D40D2500E0E569C7F3E4
:100FE0000A560D2D49DA00214FEA175B08464FF0EB
:100FF0000000002F00F4400007DA00EB80004FF4FF
:10100000400100EBD07001EA60008115012901DD8B
:101010004FF0FF3100224FEA850CBCF1180F06D3C8
:101020001346ACF118004FF08052C24003E04FF479
:10103000801323FA0CF30CF10C0CBCF1200F04D339
:10104000ACF1200C09FA0CF001E007FA0CF00029D1
:101050004FF0004801DD18B90FE00ED140450CD328
:1010600019EB02095F4121B9404502D19F4329EAAA
:101070000209BBEB175F00D0761C2088000502D563
:101080007B48784402E07A487844193808AA30232B
:1010900002F80A30037C0AF10101002E0AF1020A6B
:1010A00053546A4602DC4FF0300101E04FF0310149
:1010B0004FF001088DF8001002D0A6F2FF3603E0D1
:1010C00059EA470100D06B4E002D02DC2178090758
:1010D00004D54FF002082E218DF80110C4460021DE
:1010E0000BE0C7F303433F01C35C491C6D1E02F8CC
:1010F0000830052908F1010801DA002DF1DC002192
:101100000CE000EB1973491C1B786D1E082902F8CE
:1011100008304FEA091908F1010801DA002DF0DC66
:1011200021688B0602D516E0A8F10108E04505DD2F
:1011300002EB080313F8013C302BF5D0B8F1000F97
:1011400009DD02EB080313F8013C2E2B03D109073C
:1011500001D4A8F10108002D05DD3E2102F8081098
:101160006D1E08F10108407C002E02F8080008F10D
:10117000010804DA2D20764202F8080002E02B2054
:1011800002F808000A214FF47A70864208F101083B
:101190000BDB96FBF0F3303302F8083096FBF0F3EC
:1011A00008F1010800FB136601E0642E0CDB6420EB
:1011B00096FBF0F3303302F8083096FBF0F308F1B9
:1011C000010800FB136601E00A2E06DB96FBF1F036
:1011D000303002F8080008F1010896FBF1F001FB3D
:1011E0001060303002F80800A16908F1010808EB2E
:1011F000050202EB0A00081AA0612078C00602D49A
:101200002046FFF753F9216A08AE01EB0A0020627D
:1012100004E0D4E9012116F8010B9047BAF1010A64
:10122000F7D22078C00602D52046FFF73FF96E4678
:1012300009E016F8010B3E280FD0D4E901219047B0
:10124000206A401C2062B8F10108F2D22046FFF764
:1012500043F909B00320BDE8F08F206A28442062DA
:1012600003E0D4E90121302090476D1EEBD3F8E76D
:10127000463C000002FCFFFF10B5436913B1AFF319
:10128000008001E0FFF74BF9012010BD127800F15A
:1012900024010A7000224A700122EDE711684FF024
:1012A000FF32E9E710B5436913B1AFF3008001E005
:1012B000FFF7D4F9012010BD128800F124018284C7
:1012C0000022C2840122EDE711684FF0FF32E9E706
:1012D00070B516460C46054600F040F8036893F8D2
:1012E0000101012806D0FF2C0FD8185D68B101203C
:1012F0002C7070BDD3F807013246214603F2071364
:1013000003442846BDE8704018474FF0FF3070BDD9
:10131000754600F0EBF8AE4605006946534620F0EE
:101320000700854618B020B5FEF7E0FFBDE8204075
:101330004FF000064FF000074FF000084FF0000B91
:1013400021F00701AC46ACE8C009ACE8C009ACE844
:10135000C009ACE8C0098D467047000010B500F028
:1013600005F8001D10BD00BF4D3800000048704753
:10137000C81700202DE9F0411F46044603260168E6
:10138000072A01F4006004DB08B116A505E016A5E4
:1013900003E008B115A500E015A521F010002060BC
:1013A000A069C01EA0610FB1401EA0612046FFF7DA
:1013B0007DF84FB1D4E9012138469047206A401C9E
:1013C0002062C01C206206E0206AFAE7D4E901210D
:1013D00015F8010B9047761EF8D22046FFF77CF8EF
:1013E000BDE8F0814E414E006E616E00494E4600F0
:1013F000696E66002DE9F047814616468AB0354889
:1014000078440DC88DE80D0032487844801C03AC48
:101410000DC884E80D0041F69B300844372190FB4D
:10142000F1F290FBF1F5A5F1800501FB12041B3CE4
:1014300002D56442012000E00020DFF898A0804639
:101440000027FA44AAF1BE0A0EE0E0070AD03246AD
:10145000684607EB470101230AEB810100F023FBFB
:101460008DE8070064107F1C002CEED1194F7F44DB
:10147000AE3F19E0E80715D007EB04100DF1180A8C
:1014800090E80E008AE80E00C068F04201D1981979
:1014900008903246012306A903A800F004FB03AB21
:1014A00083E807006D10641C002DE3D14FF00103A9
:1014B00032466946B8F1000F03A802D000F0DEFA08
:1014C00001E000F0F0FAC9E90001C9F808200AB00B
:1014D000BDE8F0875839000010B50446AFF300802E
:1014E0002046BDE81040FEF7A0BE0000004870474F
:1014F000A81700204FF0013C50F8042B51F8043B92
:101500009A4221D1A2EB0C03934313EACC1317D1D7
:1015100050F8042B51F8043B9A4215D1A2EB0C036E
:10152000934313EACC130BD150F8042B51F8043B2E
:101530009A4209D1A2EB0C03934313EACC13DBD0FC
:101540004FF00000704700BFD01A01BAB1FA81F124
:1015500001F0180122FA01F0CB40C1F12001DBB209
:10156000C0B2C01A2CFA01F3D11A914311EAC31187
:10157000E6D170477047000001491820ABBEFEE776
:10158000260002005FEA400C08BF91F0000F4FEA0E
:101590008C234FEAC12243EA51514FEA1C5018BF35
:1015A00000F5F0404FEA300018BF41F000415FEA1B
:1015B0006C5C00F02980BCF1FF3F08BF40F0804028
:1015C0007047130C06BF12044FF0100C4FF0000CC4
:1015D000130E04BF12020CF1080C130F04BF12010A
:1015E0000CF1040C930F04BF92000CF1020CD30F0A
:1015F00004BF52000CF1010C11464FF00002A0F1A3
:101600001F00A0EB0C00704711F0004F08BF70479F
:1016100031F000413FF4D5AF0B0C06BF09044FF089
:10162000100C4FF0000C0B0E04BF09020CF1080C5B
:101630000B0F04BF09010CF1040C8B0F04BF8900D0
:101640000CF1020CCB0F04BF49000CF1010CCCF1E2
:101650002003A0EB0C0022FA03F302FA0CF241EA99
:10166000030100F10100704720F07F4C80EA030085
:1016700023F07F47ACEB070303F57C5300F00040F9
:1016800003F1FF032DE980494FEA154B09B44FEAF6
:10169000144325EA0B4E24EA03480FF2042606EB16
:1016A000132749083E785FEA320203FB0667C7F555
:1016B000000707FB06F64FEA54374FEAD64606F115
:1016C000020607FB066CCCF1005C4FEA1C472CEAD3
:1016D000074C07FB06F40CFB06F504EB15464FEA36
:1016E000961634BF00204FF000404FEAD13706FB7A
:1016F00007FC4FEA1C4C0CFB0BF7D21B03FB0CF74F
:1017000061EB07010CFB0EF7B0EB074072EB1742E1
:101710000CFB08F734BFA2EB0742B2EB074261EBC8
:1017200017414FEA0C444FEA910706FB07FC4FEACA
:101730001C4C0CFB0BF7B0EBC74072EB573203FBB2
:101740000CF734BFA2EBC742B2EBC74261EB573193
:101750000CFB0EF7B0EBC70072EB57720CFB08F7EF
:1017600034BFA2EBC702B2EBC70261EB5771039F14
:101770004FEA816141EA921104EBCC044FEAD13780
:101780004FEA826206FB07FC42EA90124FEA806051
:101790004FEA1C4C0CFB0BF7D21B03FB0CF761EB65
:1017A00007010CFB0EF7B0EB074072EB17420CFB86
:1017B00008F734BFA2EB0742B2EB074261EB1741D7
:1017C0004FEA8C554FEA910704EB9C2406FB07FC7B
:1017D0004FEA1C4C0CFB0BF7B0EBC74072EB5732D7
:1017E00003FB0CF734BFA2EBC742B2EBC74261EB7D
:1017F00057310CFB0EF7B0EBC70072EB57720CFBC6
:1018000008F734BFA2EBC702B2EBC70261EB577116
:1018100015EB4C254FEA816141EA92114FEA826251
:101820004FEAD13742EA901206FB07FC44F100046C
:101830004FEA80604FEA1C4C0CFB0BF7D21B03FBFA
:101840000CF761EB07010CFB0EF7B0EB074072EBF6
:1018500017420CFB08F734BFA2EB0742B2EB07427A
:1018600061EB174115EB1C154FEA813141EA9241BA
:101870004FEA823242EA90424FEA80304FEA0C76D9
:1018800044F1000448EA03434EEA0B484FF0000ECF
:10189000B2EB080C71EB030724BF624639464EEBEE
:1018A0000E0E4FF0000B0018524149414BEB0B0B51
:1018B000B2EB080C71EB03077BF1000B24BF62460F
:1018C00039464EEB0E0E4FF0000B001852414941C5
:1018D0004BEB0B0BB2EB080C71EB03077BF1000B2E
:1018E00024BF624639464EEB0E0E51EA020718BF7E
:1018F00046F0010616EB0E7655F1000254F1000198
:1019000003D5BDE88901BDE80088BDE88901BDE8CF
:101910000048B619524141EB0101A3F101037047A0
:1019200080807F7E7D7C7B7A79787776767574731C
:10193000727171706F6E6E6D6C6C6B6A6A696868DB
:10194000676666656464636362616160605F5F5E71
:101950005E5D5D5C5C5B5B5A5A59595858575756E7
:10196000565555555454535352525251515050504C
:101970004F4F4F4E4E4D4D4D4C4C4C4B4B4B4A4A9E
:101980004A494949484848474747474646464545E2
:10199000454444444443434343424242424141411B
:1019A000002B9C4630D477002BD01CB54FEA37076C
:1019B00003B44FF010004FF01001BAF1000F06D041
:1019C000BCF1000FDCBF40F0080040F008014FF010
:1019D00000000FBCBDE810400BF1010BBBF1010F83
:1019E00008BF5FEA170722BF12F1010211F10101DE
:1019F0004FF0004143F1000300F0004043EA0000D3
:101A00007047F9D35708D0E746EA064613F1400F6E
:101A10004FEA16461FDD13F1200FDFBF16430A46BB
:101A2000002120335B42BED0C3F1200746EA0646C0
:101A300002FA07F74FEA164646EA0706C3F12007FF
:101A400022FA03F201FA07F721FA03F14FF000033B
:101A500042EA0702A7E746EA020646EA06464FEAD6
:101A6000164646EA0106BCBF46EA0646360C4FF06B
:101A700000034FF000024FF0000194E72DE9804C85
:101A80009A46934670B491E8380007C831EA400C92
:101A900048BF34EA430C03D5FFF7E6FDFFF780FFAC
:101AA000F0BCBDE8008C2DE9804C9A46934670B49A
:101AB00091E8380007C810F0804F08BF13F0804F3E
:101AC00003D100F005F8FFF76BFFF0BCBDE8008C18
:101AD00020F07F4780EA030023F07F4C07EB0C03E4
:101AE000A3F57C5300F00040A3F1FE0392F0000F39
:101AF00000F0B38095F0000F00F077802DE90149E8
:101B00004FEA11404FEA144621EA004800FB06FC68
:101B100024EA064708FB06F607FB08F800FB07F770
:101B200018EB06484CEB164C4FEA124B18EB0748E3
:101B30004FEA15464CEB174022EA0B4E0BFB06FC16
:101B400025EA06470EFB06F607FB0EFE0BFB07F722
:101B50001EEB064E4CEB164C4FF000061EEB074EEC
:101B60004CEB174B18EB0B0840F1000018EB0E0B79
:101B700058EB000840F100008F1A4FF000013CBF05
:101B8000C943661B14BFB5EB040C00213CBFC9431D
:101B9000F61B4FEA17444EEA8E0E27EA04454FEA39
:101BA0001C4704FB07622CEA074C05FB07F70CFBFC
:101BB00005F604FB0CFC16EB074642EB174216EB4E
:101BC0000C4642EB1C421BEB060658EB020241415D
:101BD00046EA9E0601D5BDE80189B619524141EB9E
:101BE0000101A3F10103BDE801894FEA14454FEA61
:101BF000114724EA054621EA074C05FB07F406FBDA
:101C000007F70CFB06F105FB0CFC11EB074144EB5D
:101C100017444FEA124711EB0C4144EB1C4422EAF3
:101C2000074C05FB07F206FB07F70CFB06F605FB66
:101C30000CFC16EB074642EB174216EB0C4642EB48
:101C40001C456A1854F1000148BF7047B61952414B
:101C500041EB0101A3F10103704795F0000F37D06C
:101C60004FEA11424FEA144721EA024624EA074CA0
:101C700002FB07F106FB07F70CFB06F402FB0CFC6A
:101C800014EB074441EB17414FEA154714EB0C44A2
:101C900041EB1C4125EA074C02FB07F506FB07F761
:101CA0000CFB06F602FB0CFC16EB074645EB174552
:101CB00016EB0C4645EB1C42121951F1000148BFCE
:101CC0007047B619524141EB0101A3F1010370477E
:101CD0004FEA14454FEA114724EA054621EA074C2A
:101CE00005FB07F106FB07F70CFB06F24FF00006B9
:101CF00005FB0CFC12EB074241EB174112EB0C42C7
:101D000051EB1C4148BF7047921841EB0101A3F110
:101D100001037047FEE70000014800F091B80000A1
:101D200028040020014800F08BB80000E4030020E4
:101D300030B590F840500124AC40C56B6C6004682D
:101D400063604368102B036803D099600068C26029
:101D500030BD9A600068C16030BD704772B6FEE762
:101D600010B590F821100022022905D004218163CA
:101D700080F82020012010BD01680B6823F00E03BD
:101D80000B6001680B6823F001030B6090F8403092
:101D9000012404FA03F1C36B596080F8214080F8F4
:101DA0002020104610BD000010B590F8211000242E
:101DB000022903D00421816301243DE001680A68FF
:101DC00022F00E020A6001680A6822F001020A602D
:101DD0001A4A0168914201D1012121E0174A1432C7
:101DE000914201D110211BE0144A2832914201D1C5
:101DF000891515E0114A3C32914201D189140FE056
:101E00000E4A5032914202D14FF4803108E00B4A21
:101E10006432914202D14FF4801101E04FF08071A1
:101E2000064A083A5160012180F82110002180F80B
:101E30002010416B01B18847204610BD08000240C8
:101E40002DE9F05FC16B0B6801680A68046C4FF004
:101E5000040C0CFA04FC4A4DDFF828A14A4E4B4F03
:101E6000DFF82CB1DFF82CE11CEA030F2DD05FEA7C
:101E7000427C2AD50A68920603D40A6822F004023A
:101E80000A600168A94201D1042119E0514501D13C
:101E9000402115E0B14202D14FF4806110E0B94217
:101EA00002D14FF480410BE0594502D14FF480211B
:101EB00006E0714502D14FF4800101E04FF08061EE
:101EC0002F4A083A5160C16A3BE04FF0020808FA15
:101ED00004F818EA030F4FF000094FF0010C35D059
:101EE0005FEA827832D50A68920605D40A6822F041
:101EF0000A020A6080F821C00168A94201D10221CA
:101F000019E0514501D1202115E0B14202D14FF431
:101F1000007110E0B94202D14FF400510BE0594575
:101F200002D14FF4003106E0714502D14FF40011A7
:101F300001E04FF00071124A083A516080F8209099
:101F4000816A00291AD0BDE8F05F08470825A5403E
:101F50001D4213D0120711D50A6822F00E020A6042
:101F600090F84010C26B0CFA01F15160C0F838C013
:101F700080F821C080F82090016BE2E7BDE8F09F77
:101F8000080002401C0002403000024044000240B1
:101F9000580002406C00024030B528B302C8134A12
:101FA00014230A44B2FBF3F29200C263104A826324
:101FB000022242770B6843F6F0729343D0E9002483
:101FC0002243D0E902452C43224304692243446959
:101FD0002243846922431A430A600021416301229B
:101FE00042770177084630BD012030BDF8FFFDBFC4
:101FF0000000024070B5044690F82000002501283A
:102000000CD0012084F8200094F821600020012EDB
:1020100006D084F820000225284670BD022070BD3D
:10202000022684F82160A0632068066826F0010675
:1020300006602046FFF77CFEE06A00282068016801
:1020400002D041F00E0106E021F004010160206899
:10205000016841F00A0101602068016841F0010156
:102060000160D9E72DE9F84FDFF8A4910024A9F128
:10207000040B23464FF00F0809F1040AABF1040EDC
:10208000BEE00127A7403A40BA4272D1DFF884C1CE
:102090004D68A5EB0C0665452BD00DDC032D34D027
:1020A00005DC35B3012D19D0022D2FD11BE0112DE8
:1020B00016D0122D2AD119E0B6F5881F19D006DCEA
:1020C000B6F5803F15D0B6F5801F1FD111E0B6F5EB
:1020D000001F0ED0B6F5041F18D10AE0CB6815E03A
:1020E000CB681B1D12E0CB6808330FE0CB680C33C4
:1020F0000CE08B682BB1012B4FF0080303D0476134
:1021000004E0042302E0076100E00023FF2A01D875
:10211000064601E000F104064FEA840501D9A5F165
:102120002005376808FA05FC27EA0C0703FA05F5CD
:1021300047EA050737604D68ED0060D5364DAE695A
:1021400046F00106AE61AD6924F0030605F0010515
:102150000095324D7719BE68A5072D0F08FA05FCCA
:1021600026EA0C06DFF8B8C0604503D14FF0000C3A
:1021700017E044E0DFF8ACC0604502D14FF0010C3D
:102180000FE0DFF8A4C0604502D14FF0020C08E078
:10219000DFF898C0604502D14FF0030C01E04FF02A
:1021A000040C0CFA05FC4CEA060CC7F808C04D6894
:1021B000D9F80060ED024D4601D5164300E0964384
:1021C0002E604D68DAF80060AD02554601D5164321
:1021D00000E096432E604D68DBF80060AD035D467D
:1021E00001D5164300E096432E604D68DEF800608E
:1021F000ED03754601D5164300E096432E60641C3E
:102200000A6832FA04F57FF43CAFBDE8F88F0000AD
:1022100008040140000011100010024000000140BD
:1022200000080140000C0140001001400014014072
:102230000148806870470000100000200248816853
:10224000027811448160704710000020074810B5E3
:10225000016841F010010160032000F0A1F80020A6
:1022600000F006F800F04AF8002010BD00200240FF
:1022700030B505461C4887B0816941F40061816131
:10228000806905A900F400600690684600F036F900
:1022900000F064F91549164AB0FBF1F11548491EE2
:1022A000026040F2E732C26000220261C0E901121E
:1022B000826100F017FB040012D10E4800F040FBD1
:1022C00004000DD1192000F03DF8102D07D2002296
:1022D0002946192000F044F80748056000E0012471
:1022E00007B0204630BD00000010024040420F0001
:1022F000002C01406C040020140000200F4808B599
:10230000816941F001018161816901F00101009160
:10231000C16941F08051C161C069002200F0805064
:1023200000900F21901E00F01BF80549486820F02E
:10233000E06040F00070486008BD000000100240FE
:1023400000000140002809DB00F01F02012191403C
:102350004009800000F1E020C0F800117047000043
:10236000F0B40E4B1B68C3F30223C3F10704042C23
:1023700000D904241D1D072D01D2002300E0DB1E1F
:10238000012606FA04F56D1E0D409D409E40761E06
:10239000164045EA0601F0BC01F017BA0CED00E06A
:1023A000064A00F0070110684FF6FF03184040EAA4
:1023B0000120034908431060704700000CED00E065
:1023C0000000FA052DE9F0470D46040067D0DFF85C
:1023D0001881D8F8000000F00700A8420CD2D8F805
:1023E000001021F007012943C8F80010D8F80000B8
:1023F00000F00700A84252D120683C4E810712D558
:10240000400703D5706840F4E060706020780007F2
:1024100003D5706840F4605070607068A16820F067
:10242000F000084370602078C00727D0606801285A
:1024300010D03168022810D0890700292FDA71687E
:1024400021F0030101437160FFF7F2FE074641F2FC
:1024500088390CE031688903EFE78901EDE7FFF780
:10246000E7FEC11B494502D90320BDE8F08770682B
:10247000616800F00C00B0EB810FF0D1D8F80010CB
:10248000404601F00701A9420BD9016821F007017C
:1024900029430160006800F00700A84201D0012034
:1024A000E3E72078400705D57068E16820F4E06034
:1024B000084370602078000706D57068216920F411
:1024C000605040EAC100706000F058F87168084A36
:1024D000C1F30311515CC840064908600648006812
:1024E000FFF7C6FE0020C0E70020024000100240B7
:1024F0005E4C00081C000020140000200F22026027
:102500000C4A536803F003034360536803F0F0037D
:102510008360536803F4E063C36052684FF4E06380
:1025200003EAD20202610448006800F00700086074
:102530007047000000100240002002400448054996
:1025400000684968044AC1F30221515CC8407047E1
:102550001C000020001002406E4C00080448054991
:1025600000684968044AC1F3C221515CC840704701
:102570001C000020001002406E4C00080E4B5968F1
:102580000E4801F00C02042A11D0082A0FD10C4881
:10259000C1F38342C903805C0AD55968084AC1F374
:1025A0004041921E515C054A5043B0FBF1F0704728
:1025B00004494843704700000010024000127A00AE
:1025C0004E4C000800093D002DE9F84F04006FD083
:1025D0002078BE4DC00747D06868C0F3810001284D
:1025E00007D06868C0F38100022809D16868C00379
:1025F00006D52868800337D560680028E7D033E027
:102600006068B0F5803F0BD010B1B0F5A02F11D0AD
:10261000286820F480302860286820F4802002E0B8
:10262000286840F480302860606888B1FFF700FEB9
:10263000064609E0286840F480202860F0E7FFF7AC
:10264000F7FD801B642873D828688003F7D50BE05A
:10265000FFF7EEFD064604E0FFF7EAFD801B642865
:10266000F1D828688003F7D42078DFF864828007E7
:102670004FF0010A4FF0000939D5686810F00C0FCF
:1026800007D06868C0F38100022809D16868C003D8
:1026900006D42868800714D52069012808D110E0E5
:1026A0002069B0B1C8F800A0FFF7C2FD064605E0FA
:1026B00007E1FFF7BDFD801B0228C4D8286880070A
:1026C000F7D52868616920F0F80040EAC100286069
:1026D0000DE0C8F80090FFF7ABFD064604E0FFF7F9
:1026E000A7FD801B022823D828688007F7D420780C
:1026F00000072CD57748A169D9B1C0F800A0FFF731
:1027000097FD064604E0FFF793FD801B02280FD8D3
:10271000686A8007F7D570484FF4FA510068B0FB3B
:10272000F1F0009000BF0098411E0091FAD20EE037
:102730007CE0C0F80090FFF77BFD064604E0FFF761
:1027400077FD801B022871D8686A8007F7D420784B
:1027500040075BD5E8690027C00008D4E86940F06D
:102760008050E861E869012700F0805000905B48E4
:102770000168C90511D40168834641F48071016084
:10278000FFF756FD064604E0FFF752FD801B642864
:102790004CD8DBF80000C005F6D5E06801280AD067
:1027A00008B1052813D0286A20F001002862286AA1
:1027B00020F0040002E0286A40F001002862E0688E
:1027C00041F2883B88B1FFF733FD064609E0286AED
:1027D00040F004002862EEE7FFF72AFD811B59450F
:1027E0005BD8286A8007F7D50BE0FFF721FD064686
:1027F00004E0FFF71DFD811B59454ED8286A80076C
:10280000F7D41FB1E86920F08050E861E069A8B30F
:102810006968C1F38101022946D00228484606D0E2
:10282000C8F86000FFF704FD044639E035E047468C
:10283000C8F86000FFF7FCFC064604E0FFF7F8FC70
:10284000801B022829D828688001F7D4206AB0F5B7
:10285000803F05D16868A16820F4003008436860B3
:10286000D4E908010843696821F4741108436860D9
:10287000C7F860A0FFF7DCFC044605E023E0FFF7A3
:10288000D7FC001B022808D828688001F7D51AE079
:10289000FFF7CEFC001B022802D90320BDE8F88F09
:1028A00028688001F4D40EE00128F7D06868226A15
:1028B00000F48031914204D1616A00F470108842C2
:1028C00001D00120EAE70020E8E700000010024004
:1028D00000004242800442421C0000200070004080
:1028E0007047704710B5040003D094F83D0010B154
:1028F00007E0012010BD002084F83C00204600F0D5
:102900001EF8022084F83D00211D206800F0C6FC5E
:10291000012084F8460084F83E0084F83F0084F8E3
:10292000400084F8410084F8420084F8430084F8B1
:10293000440084F8450084F83D00002010BD704735
:1029400090F83D10012901D001207047022180F844
:102950003D100168CA6842F00102CA6000680B4974
:10296000884208D0B0F1804F05D00949884202D092
:102970000849884204D1816801F00701062903D083
:10298000016841F00101016000207047002C014006
:10299000000400400008004070472DE9F041044663
:1029A0000068C66805694FF00007A90713D5B1078D
:1029B00011D5F91E01610120207720688069800708
:1029C000204602D0FFF7E8FF04E000F07EF8204642
:1029D00000F07CF82777680716D5700714D52168B2
:1029E0006FF004000861022020772068806910F4ED
:1029F000407F204602D0FFF7CFFF04E000F065F8EB
:102A0000204600F063F82777280715D5300713D53F
:102A100021686FF008000861042020772068C069F1
:102A20008007204602D0FFF7B7FF04E000F04DF822
:102A3000204600F04BF82777E80616D5F00614D5A7
:102A400021686FF010000861082020772068C069B5
:102A500010F4407F204602D0FFF79EFF04E000F014
:102A600034F8204600F032F82777E80708D0F0075E
:102A700006D021686FF001000861204600F028F8B8
:102A8000280608D5300606D521686FF08000086159
:102A90002046FFF725FF680608D5700606D5216891
:102AA0006FF040000861204600F01CF8A8060AD527
:102AB000B00608D521686FF0200008612046BDE807
:102AC000F041FFF70EBFBDE8F0817047704700008E
:102AD00000680349884201D1FFF7B0BB704700008E
:102AE000002C0140704738B5044690F84200202879
:102AF00001D0022038BD71B16AB1012020630020ED
:102B00006063204600F09AFD0246206B012804D045
:102B10000122104638BD012038BD20680168406898
:102B2000009020680C3050E8001F41F0100140E890
:102B30000013002BF5D1ECE77047704770477047E2
:102B400010B504460068406994F84110C0F3C01005
:102B5000212911D180B12068143050E8001F21F0E4
:102B6000800140E80012002AF5D1A06B08B1FFF700
:102B7000F7F8204600F070FC2068406994F8421095
:102B8000C0F38010222911D180B12068143050E8A0
:102B9000001F21F0400140E80012002AF5D1E06B4F
:102BA00008B1FFF7DDF8204600F02FFC002010BD33
:102BB000704710F8411F407808437047F8B5016826
:102BC00004460868CA684B6910F00F0F4FF0000503
:102BD00056D003F0010602F49077374361D0C10765
:102BE00005D0D10503D5616C41F001016164410755
:102BF00005D5D90703D0616C41F0020161648107FA
:102C000005D5D90703D0616C41F004016164010767
:102C100007D502F02001314303D0616C41F0080177
:102C20006164616C00293BD0800604D5900602D512
:102C3000204600F045FC20684069616CC0F38010BC
:102C4000090700D440B3204600F0DFFB206840694C
:102C500040061ED52068143050E8001F21F04001C6
:102C600040E80012002AF5D1E06B90B16E49416353
:102C7000E06BFFF799F8002812D0E06B416BCEE0D3
:102C800083060ED593060CD52046BDE8F84000F02B
:102C900017BC2046A16DC2E0A16D2046884765643F
:102CA000F8BD266B2023012E7ED1C6067CD5D60624
:102CB0007AD508684868009048694FF002064006D7
:102CC00040D5E16B086840680004000CE8D0A28D94
:102CD0008242E5D9E085886920282DD020680C3013
:102CE00050E8001F21F4807140E80012002AF5D15D
:102CF0002068143050E8001F21F0010140E8001264
:102D0000002AF5D12068143050E8001F21F040015E
:102D100040E80012002AF5D184F84230256320688B
:102D20000C3050E8001F21F0100140E80012002A8A
:102D3000F5D1E06BFFF714F86663A08DE18D401AC2
:102D400081B22AE0A08DE18D401A81B2E08D002889
:102D5000A6D00029A4D020680C3050E8002F22F41F
:102D6000907240E80027002FF5D12068143050E819
:102D7000002F22F0010240E80027002FF5D184F84F
:102D80004230256320680C3050E8002F22F01002FA
:102D900040E80023002BF5D16663E26E01B02046C7
:102DA000BDE8F0401047FFE705062CD515062AD5EB
:102DB00094F8410021287FF473AFA068B0F5805FDC
:102DC00001D12069B0B1206A411C216221680078DC
:102DD0004860E08C401E0004000CE084EBD12068C9
:102DE000C16821F08001C1602068C16841F04001E4
:102DF000C160F8BD206A0088C0F308004860206AFE
:102E0000801C2062E5E74006F3D55006F1D5CA687C
:102E1000204622F04002CA6084F84130E16C01B0E3
:102E2000BDE8F040084700001533000870B5040005
:102E300004D094F84100002510B10DE0012070BDD0
:102E400084F84050204600F015FB206F08B9144864
:102E50002067014620468847242084F841002068E6
:102E6000C16821F40051C160204600F08BFB20684E
:102E7000016921F4904101612068416921F02A0132
:102E800041612068C16841F40051C160656420203F
:102E900084F8410084F842006563002070BD0000A2
:102EA000A52E00082DE9F04186B0002504460095C6
:102EB00001950295039500682F49884258D12F4803
:102EC000816941F480418161816901F4804104910B
:102ED000816941F0040181618069294E00F004009C
:102EE00004904FF4007000900220019003200390A2
:102EF00069463046FFF7B6F83015CDE9000569465A
:102F000030460295FFF7AEF81F4E1E484FF080087E
:102F1000C6E90005C6E9025835614FF440577561AE
:102F2000C6E906573046FFF737F808B1FEF716FF37
:102F3000E6637462144E13484436143801C61020F8
:102F4000A6E82101104846F8105944307561C6E9D9
:102F50000657FFF721F808B1FEF700FFA66300222D
:102F6000052125207462FFF7FBF92520FFF7EAF918
:102F700006B0BDE8F08100000038014000100240BA
:102F80000008014058000240E40300200022A1B1E3
:102F900090F84030012B16D0012380F8403090F893
:102FA0004130202B11D0416C41F0200141640122BD
:102FB000002180F8401010467047416C41F020011C
:102FC00041640120704702207047C166F0E77047F6
:102FD00070472DE9F843044690F841001F46154616
:102FE0000E46202802D00220BDE8F8838EB185B1BC
:102FF00000206064212084F84100FFF719F9A584BE
:103000008146E584A0684FF02008B0F5805F02D0CB
:1030100003E00120E8E7206910B1354600260EE004
:1030200000250CE08021204600F052FBA0B9BDB184
:1030300015F8010B21684860E08C401EE084E08CAC
:103040004B464FF0000200970028EBD14FF04001B3
:10305000204600F03DFB40B184F841800320C3E7E7
:1030600036F8020BC0F30800E4E784F84180002042
:10307000BAE770477047FEE70D4808B5416941F06F
:10308000010141614069002200F00100009005212A
:103090000E20FFF765F90E20FFF754F900220521F5
:1030A0000F20FFF75DF9BDE808400F20FFF74AB990
:1030B0000010024010B517489AB015AC0FC884E84C
:1030C0000F00002115A800F046FC134C11491C22EA
:1030D000E06010316846FDF77AF90021684600F09B
:1030E0004DFC0C4920601C222C3107A8FDF76FF91C
:1030F000002107A800F042FC064960601C2248310C
:103100000EA8FDF764F900210EA800F037FCA060BE
:103110001AB010BDE84B00080000002010B586B0C2
:103120000020029003901E48816941F010018161E6
:10313000816901F010010491816941F020018161F0
:10314000816901F020010491816941F004018161EC
:10315000816901F004010491816941F008018161F4
:103160008069032400F0080004904FF46040CDE92A
:10317000000469460B48FEF775FF49F6FF10CDE9DC
:10318000000469460848FEF76DFF4FF6FF70CDE971
:10319000000469460548FEF765FF06B010BD000053
:1031A000001002400010014000080140000C0140E6
:1031B0000D4810B50B4901604FF4E1314160002129
:1031C00081600C22C160C0E904128161C161FFF716
:1031D0002DFE08B1FEF7C2FDBDE8104003490248CC
:1031E000FFF7D4BE003801406C03002041370008CF
:1031F000FEE7FEE7012000F0A2FBFBE7012000F064
:103200009EFBFBE710B5502080F31188BFF34F8F72
:10321000BFF36F8F01F06AFB18B104494FF0805083
:103220000860002080F3118810BD000004ED00E06C
:1032300030B58FB028216846FDF7FBF814210AA8A5
:10324000FDF7F7F80120010400248DE81300049035
:103250004FF4E010CDE90810022507956846FFF706
:10326000B3F908B172B6FEE70F20CDE90A054FF4B5
:103270008060CDE90C4002210AA80E94FFF7A2F865
:10328000002801D072B6FEE70FB030BD70470000D5
:103290000148FFF782BB00006C040020F0B5026813
:1032A000194C1A4D1A4E4FF08047A04205D0B84233
:1032B00003D0A84201D0B04203D122F070034A6883
:1032C0001A43A04205D0B84203D0A84201D0B04270
:1032D00003D122F44073CA681A434B6922F080027A
:1032E0001A4302608A68C2620A688262A04201D1FF
:1032F00009690163012141610169C90703D00169BD
:1033000021F001010161F0BD002C014000040040EA
:1033100000080040406A0021C185C184816D0847D2
:1033200070B5446A2068406994F84110C0F3C01039
:103330000025212904D118B1E584204600F08CF83D
:103340002068406994F84210C0F38010222904D10B
:1033500018B1E585204600F058F8606C40F0100088
:1033600060642046A16DBDE87040084730B4014656
:10337000406A096809684FF0000389062ED4C385A6
:1033800001680C3151E8002F22F4807241E80024DA
:10339000002CF5D10168143151E8002F22F0010210
:1033A00041E80024002CF5D10168143151E8002FC8
:1033B00022F0400241E80024002CF5D1202180F8C1
:1033C0004210016B012909D101680C3151E8002F2D
:1033D00022F0100241E80024002CF5D14363016B78
:1033E000012902D0416D30BC0847818DC26E30BCCE
:1033F0001047406A01214163016B012901D0016D31
:103400000847818DC26E4908104701680C3151E8A8
:10341000002F22F4907241E80023002BF5D10168BF
:10342000143151E8002F22F0010241E80023002B63
:10343000F5D1016B012909D101680C3151E8002F48
:1034400022F0100241E80023002BF5D1202180F862
:10345000421000210163704701680C3151E8002FD0
:1034600022F0C00241E80023002BF5D1202180F892
:1034700041107047094981640949C16409490165DE
:1034800009494165094981650949C16509490166DB
:10349000094941660949C166704700007530000856
:1034A00073300008D12F0008CF2F0008B12B00087F
:1034B0003B2B00083F2B00083D2B0008392B000850
:1034C00008B590F84210222901D0022008BD816879
:1034D0004FF48053994201D1026922B1826A994224
:1034E0001BD049B10AE00268816A5268C2F308023F
:1034F0000A80816A891C08E0016971B10168496824
:1035000001F07F011170816A491C8162C18D491EE1
:103510000904090CC18503D01BE001684968F1E783
:103520000168CA6822F02002CA600168CA6822F4F1
:103530008072CA6001684A6922F001024A61202152
:1035400080F8421000214163026B012A03D0416DD3
:103550008847002008BD016301680C3151E8002F45
:1035600022F0100241E80023002BF5D101680A681F
:10357000D20602D50A6849680091C26E818D9047D3
:10358000E7E7000070B5044600680169E26821F4CD
:10359000405111430161A168206901436069014301
:1035A0002068C26841F20C639A430A43C2602068F3
:1035B0004169A26921F44071114341611E492068AB
:1035C000884202D1FEF7CAFF01E0FEF7B7FF00EB29
:1035D000C00101EB0011606864228000B1FBF0F3D0
:1035E000B3FBF2F36FF018067343B1FBF0F5B1FBD8
:1035F000F0F605EB8305322303EB0515B5FBF2F579
:10360000B6FBF2F605F0F00505EB0615B1FBF0F69A
:10361000B1FBF0F0B0FBF2F06FF01801484306EB9D
:10362000800003EB0010B0FBF2F0216800F00F0007
:103630002844886070BD00000038014037B582B072
:103640001346039A82620446838500206064222127
:1036500084F84210E56B1B49A962E56B1A49E962DF
:10366000E56B1A492963E16B48632168E06B091D2A
:10367000FEF7C0FC2068016840680090206948B1EE
:1036800020680C3050E8001F41F4807140E80012BF
:10369000002AF5D12068143050E8001F41F00101E4
:1036A00040E80012002AF5D12068143050E8001FCD
:1036B00041F0400140E80012002AF5D105B0002099
:1036C00030BD00006D330008F333000821330008DB
:1036D0002DE9F8431F4690460D460446089E23E018
:1036E000701C21D0FEF7A4FDC01BB0421AD8CEB189
:1036F0002068C168490717D5802D15D0402D13D0FB
:103700000168C94309070FD401680025406800908B
:103710002046FFF77AFE0820606484F840500120BC
:10372000BDE8F8830320FBE72068006835EA000065
:1037300004D000204045D3D00020F1E70120F9E774
:10374000F8B50D460746FFF7FBF90F4C0F4E002367
:1037500020881A4600EB801006EB40006946A0F86E
:10376000805000900A48006800F022FF20788022F4
:10377000401C00F00100208000EB801006EB4001AF
:103780003846FFF7B0F9F8BD88000020A4160020E5
:103790000C0000200148FFF711BA00006C03002064
:1037A000FEE7490050EAC12018BF04204A0D18BFA7
:1037B00040F0010040F2FF72B2EB515F08BF40F0F1
:1037C0000200012808BF052070470907090E0028DC
:1037D00004DB00F1E02080F80014704700F00F00D7
:1037E00000F1E02080F8141D7047000010B5094872
:1037F00000F0ACFB0020074A01460C3202EB00133C
:10380000401C19700828F9D3BDE81040014800F0A9
:10381000B3BB00008C00002030380A2801D2012000
:10382000704700207047000010B5040006D009481A
:1038300000F08CFB20680178012902D072B6FEF7F7
:103840008DFA001D00F082FBBDE81040014800F039
:1038500093BB00008C00002010B5040006D008487F
:1038600000F074FB20680178012902D072B6FEF7DF
:1038700075FA00210170BDE81040014800F07CBBE2
:103880008C00002010B504000FD0154800F05EFB3E
:10389000134A00210C3202EB0110007838B1491CA8
:1038A0000829F8D30E4800F067FB002010BD02EB9A
:1038B00001100121206001702168091D0CD0002039
:1038C000024641F82020401C0228FAD30A7204481C
:1038D00000F052FB012010BD72B6FEF73FFA000067
:1038E0008C00002010B5040006D0094800F02EFB23
:1038F00020680178012902D072B6FEF72FFA001D68
:1039000000F03AFBBDE81040014800F035BB000074
:103910008C000020FEF79AFCFFF78AFCFFF7FEFB05
:10392000FFF7AAFBFFF744FCFFF7C4FB00F00EF81B
:10393000FEE701460020842900D0C81C704710B55E
:1039400000B9012000F090FC002010BD10B500F07F
:10395000D7FC002010BD38B5D0E9011204683AB197
:10396000C3682BB100200090204600F0AAFD38BDAE
:103970002046BDE83840002200F082BD7FB50D46EC
:1039800004464169B0F9080081B1A16971B1FFF73E
:10399000D0FFD4E905128DE80700D4E900102B46CA
:1039A000226900F068FF039004B070BDFFF7C1FF0B
:1039B00003A9CDE90001208A2B4682B2D4E9001088
:1039C00000F02CFF012801D00020EDE70398EBE781
:1039D0002DE9F041184E0F460446F5683068001D89
:1039E00000F050FB38B9306890F82C100120884066
:1039F000316981433161601C07D137B13168BDE85D
:103A0000F0410E48091D00F081BB30682C44AC42E7
:103A10004460316805D2B06BBDE8F041091D00F08B
:103A20005DBB706B091D00F059FBB06A844200D287
:103A3000B462BDE8F0810000200000209005002065
:103A40002DE9F041054600F06DFB2E4EB068401C9C
:103A5000B06030682C4F10B1706940B32DE0356014
:103A6000B068012829D1002404EB840007EB800012
:103A700000F026FB641C072CF6D323488C3000F0A2
:103A80001FFB2148A03000F01BFB1F48B43000F0A2
:103A900017FB1D48C83000F013FB1B48DC3000F05A
:103AA0000FFB19488C3070631430B06305E0306848
:103AB000E96AC06A884200D83560706A0121401CFA
:103AC0007062E86A326981401143316100EB800025
:103AD00007EB8000291D00F019FB00F043FB706923
:103AE00000280CD03068E96AC06A884207D20749CA
:103AF0004FF080500860BFF34F8FBFF36F8FBDE86A
:103B0000F081000020000020B404002004ED00E05B
:103B100030B4026C0B46002A0BD0C1681144C1605E
:103B20008468A14201D30168C16030BC1846FCF72B
:103B300009BC30BC70472DE9F041856B174604463F
:103B40000026026C82B1C7B1E068FCF7FBFBE168BC
:103B5000206C091AE1602268914202D2A168081A19
:103B6000E060022F16D017E02068A8B9A06800F026
:103B700023FF06460020A0600EE06068FCF7E2FB31
:103B8000216C606808446060A168884204D32068A2
:103B9000606001E005B16D1E6D1CA5633046BDE897
:103BA000F08110B5044690F8510058B101280CD0AE
:103BB00002280FD0502080F31188BFF34F8FBFF33E
:103BC0006F8FFEE7206B00F0E1FA2046BDE8104061
:103BD00000F0DCBA10BD000010484FF480514207DD
:103BE00006D0C01D0D4920F00700411AC1F58051D3
:103BF0000B4A00230144C2E900030839183A21F0B6
:103C0000070111604B600B600B1AC0E90013936051
:103C10004FF000405360506170470000A405002041
:103C200074000020134E144DA6F1C8074FF08058C1
:103C3000DFF8489011E000F075FAF068C468201DC4
:103C400000F020FAA868401EA8606868401E6860FE
:103C500000F088FA2046FFF7A4FF68680028EAD140
:103C600038680128F9D9C9F80080BFF34F8FBFF336
:103C70006F8FF2E77C0500202000002004ED00E0BB
:103C80000346009829B10260C0E90F31012100F01C
:103C90004BBC0060F8E72DE9F0479A46DDE909845E
:103CA00081466FF00303206B03EB82021044089DF2
:103CB00020F00706700707D0502080F31188BFF36B
:103CC0004F8FBFF36F8FFEE7002761B100202318ED
:103CD0000A5C83F834200A5C12B1401C1028F6D329
:103CE00084F8437001E084F83470072D00D3062572
:103CF000E562C4E91157201D00F0EDF904F1180048
:103D000000F0E9F92461C5F107006462A061E7648D
:103D100084F8507052464946304600F005F920605C
:103D2000B8F1000F01D0C8F80040BDE8F0870000EE
:103D300030B5114900E011460A688242FBD34B6856
:103D40005C18844203D140681844486008464368C0
:103D50001C18944209D1084C183C2468A24209D08E
:103D600052681A4442600A6812680260814200D0B8
:103D7000086030BD0460F9E77400002010B5044607
:103D800000F0D0F9A06B20B1002400F0EBF9204640
:103D900010BD0124F9E700000648416B096829B10C
:103DA000416BC968C9684968816270474FF0FF314B
:103DB000FAE700002000002008484068401C4FF04F
:103DC000500080F3118804D0BFF34F8FBFF36F8F83
:103DD000FEE7BFF34F8FBFF36F8FFEE77C0000203D
:103DE0002DE9F041044600F09DF994F9455004F1A5
:103DF000240609E0606A48B1304600F029FE08B1A7
:103E000000F060FA6D1E6DB2002DF3DC4FF0FF364E
:103E100084F8456000F0A6F900F084F994F9445064
:103E200004F1100709E0206948B1384600F010FE9F
:103E300008B100F047FA6D1E6DB2002DF3DC84F876
:103E40004460BDE8F04100F08DB900002DE9F0417B
:103E50000546002600F08AFA324F386808B9FFF7A5
:103E6000BBFE786905424ED1C5B3083568070ED050
:103E700005F00700C0F108000544680707D050208E
:103E800080F31188BFF34F8FBFF36F8FFEE72DB321
:103E90007868854237D8234918310846046801E01C
:103EA000214604466068A84202D220680028F7D163
:103EB0003868844227D00E68206808606068083639
:103EC000411B10290FD96019420708D0502080F3F8
:103ED0001188BFF34F8FBFF36F8FFEE713E0416090
:103EE0006560FFF725FF61687868401A7860BA68F6
:103EF000904200D2B860786901430020C4E9000113
:103F0000F868401CF86000F0DDFD700707D0502015
:103F100080F31188BFF34F8FBFF36F8FFEE73046FA
:103F2000BDE8F0815C00002010B5031F4FF08074E5
:103F30001C601B1F21F001011960191F024B0B604F
:103F4000143940380A6010BDB93D000810B510B1F1
:103F5000017A022902D372B6FDF700FF5022EFF377
:103F6000118382F31188BFF34F8FBFF36F8F8A00E5
:103F7000491C0172835010BD10B528B1017A491E49
:103F8000C9B20172022902D372B6FDF7E7FE50F8FA
:103F9000210080F3118810BD0FB410B5EFF3058038
:103FA00010B3502080F31188BFF34F8FBFF36F8F92
:103FB00003AB4FF480710F48029AFCF7A9F904464D
:103FC0000D48FEF7F6FD2128FAD0A2B26423094974
:103FD0000948FEF7FEFFEFF3058040B1002080F3B3
:103FE000118810BC5DF814FB00F09CF8E0E700F0CD
:103FF000B9F8F6E7A41500206C03002008B515A059
:10400000FFF7CAFF1B480068C16841F01001C1609A
:1040100019481A498022008800EB801001EB40010A
:104020001448FEF760FD164C4FF0FF354FF47A76DA
:104030002A466946E06800F01BFB012806D100997A
:1040400033460C48B1F88020FEF7C3FF0120FFF78C
:1040500076FCEDE7706D696361656C666569207378
:1040600068656C6C20626567696E20686572650DB5
:104070000A0000006C03002088000020A416002025
:1040800000000020D0E9013201699A60D0E90123E3
:104090005A604A68824201D182684A600022026105
:1040A0000868401E0860086870470000034B036002
:1040B00003F1540008608020106070471801002050
:1040C00000F108014FF0FF32C0E90112C160016147
:1040D00000210160704700210161704730B50C6814
:1040E000621C02D000F1080202E0026904E01A46F4
:1040F00053681D68A542FAD953684B6099608A607D
:10410000516008610168491C016030BD42684A6025
:1041100093688B6093685960916008610168491CDD
:1041200001607047502080F31188BFF34F8FBFF3B9
:104130006F8F0A494868401C486001280CD1084824
:10414000006810F0FF0F07D0502080F31188BFF3F4
:104150004F8FBFF36F8FFEE7704700007C00002099
:1041600004ED00E00849486828B1401E486001D1CC
:1041700080F311887047502080F31188BFF34F8F70
:10418000BFF36F8FFEE700007C00002070B50028B1
:104190002AD0164DA0F1080460686969084207D169
:1041A000502080F31188BFF34F8FBFF36F8FFEE76E
:1041B00022683AB1502080F31188BFF34F8FBFF3CC
:1041C0006F8FFEE78843606000F0D0F86068696830
:1041D000084468602046FFF7ABFD2869401C286151
:1041E000BDE8704000F06EBC70BD00005C000020B7
:1041F0004FF0E02000210161816105494FF47A729E
:104200000968B1FBF2F1491E416107210161704764
:104210001C00002010B5FCF757F8114910280ED3E8
:1042200000F1E02090F8F0030A78904207D2502085
:1042300080F31188BFF34F8FBFF36F8FFEE70948FC
:104240000068896800F4E060884207D9502080F354
:104250001188BFF34F8FBFF36F8FFEE710BD0000D3
:104260007C0000200CED00E010B5020014D00F48D7
:10427000006B38B1502080F31188BFF34F8FBFF32C
:104280006F8FFEE700F072F800211046FFF7A0FBE9
:1042900000F018FC002807D105494FF08050086055
:1042A000BFF34F8FBFF36F8F10BD000020000020C1
:1042B00004ED00E002490A6A0260C9684160704783
:1042C0002000002001490120C86170472000002023
:1042D00010B50C4650B1094909681831FFF7FEFEC8
:1042E0002046BDE810400121FFF772BB502080F34B
:1042F0001188BFF34F8FBFF36F8FFEE720000020C0
:1043000010B586B00024039405AA04A903A8049458
:10431000FFF7CCFEDDE903010094CDE90110002395
:104320000EA11048059A00F0A6FA0F490028C862AD
:1043300011D0502080F31188BFF34F8FBFF36F8FE0
:104340004FF0FF30886201204861CC6006B0BDE8C4
:10435000104000F041B806B010BD000049444C4583
:1043600000000000253C0008200000200248016BEE
:10437000491C01637047000020000020144A106BA4
:1043800010B10120D06170470020D061106911493F
:10439000B0FA80F0C0F11F0000EB800051F820302F
:1043A0006BB101EB800000F108034168496841608E
:1043B000994201D149684160C86810607047502037
:1043C00080F31188BFF34F8FBFF36F8FFEE70000BC
:1043D00020000020B40400201CB526490878019074
:1043E000FF20087008788DF800009DF800009DF807
:1043F000002000F0F000904207D0502080F3118898
:10440000BFF34F8FBFF36F8FFEE79DF800001A4C8C
:1044100000F0500020700720A06006E0401EA06061
:104420009DF8000040008DF800009DF80000000697
:10443000A068F3D4032807D0502080F31188BFF37D
:104440004F8FBFF36F8FFEE74FF44070A06001986D
:1044500008700A48016841F470010160016841F088
:1044600070410160FFF7C4FE00206060FBF7F6FEBC
:1044700000201CBD00E400E07C00002020ED00E0F6
:10448000F8B517460E46050013D005FB06F0483078
:10449000FFF7DCFC04000AD0002084F8460004F199
:1044A00048023B46314628460094FFF7E9FB204688
:1044B000F8BD502080F31188BFF34F8FBFF36F8F8B
:1044C000FEE738B5049D18B153B1CAB181B120E0FF
:1044D000502080F31188BFF34F8FBFF36F8FFEE73B
:1044E000502080F31188BFF34F8FBFF36F8FFEE72B
:1044F000502080F31188BFF34F8FBFF36F8FFEE71B
:1045000039B1502080F31188BFF34F8FBFF36F8F05
:10451000FEE748241C46012384F846302B460094CD
:10452000FFF7AEFB204638BD70B50D46040025D020
:10453000FFF7F8FDD4E90F20216802FB0011A1600C
:104540000021A163216861600A46D4E90F01401E81
:1045500000FB0121E16021464FF0FF3001F8440FDC
:10456000487004F110008DB1FFF7AAFD04F124009A
:10457000FFF7A6FDFFF7F6FD012070BD502080F388
:104580001188BFF34F8FBFF36F8FFEE721690029BA
:10459000F0D000F05DFA0028ECD004494FF08050D4
:1045A0000860BFF34F8FBFF36F8FE3E704ED00E0C8
:1045B0002DE9F0471F4690468946040003D0B9F123
:1045C000000F08D011E0502080F31188BFF34F8F07
:1045D000BFF36F8FFEE7206C38B1502080F3118855
:1045E000BFF34F8FBFF36F8FFEE7022F0AD1E06B4F
:1045F000012807D0502080F31188BFF34F8FBFF3FD
:104600006F8FFEE7FFF706FE5020EFF3118680F371
:104610001188BFF34F8FBFF36F8FA06BE16B8842A0
:1046200006D3022F04D0002086F31188BDE8F0875E
:1046300094F94550A06B3A4649462046FFF77BFA6D
:10464000681C04D06D1C84F845500120ECE7606ABA
:104650000028FAD004F1240000F0FAF90028F4D080
:10466000B8F1000FF1D00121C8F80010EDE700000B
:104670002DE9F74783B08A4604004FF0000603D0C7
:10468000BAF1000F08D011E0502080F31188BFF379
:104690004F8FBFF36F8FFEE7206C38B1502080F34F
:1046A0001188BFF34F8FBFF36F8FFEE700F010F953
:1046B000DFF8F09000274FF0805848B9059838B1DE
:1046C000502080F31188BFF34F8FBFF36F8FFEE749
:1046D000FFF728FDA56BC5B151462046FFF718FA34
:1046E0006D1EA563206950B104F1100000F0B0F90F
:1046F00028B1C9F80080BFF34F8FBFF36F8FFFF76A
:1047000031FD012006B0BDE8F087059808B11EB163
:1047100006E0FFF727FD27E06846FFF7CBFD0126FF
:10472000FFF720FDFFF722FEFFF7FCFC94F94400A1
:10473000401C01D184F8447094F94500401C01D11B
:1047400084F84570FFF70EFD05A9684600F02CF8C7
:10475000002820460AD0FFF743FB00F0B3F92046BB
:10476000FFF70CFB0028B3D00020CBE7FFF706FBD8
:1047700090B104F124000599FFF7AAFD2046FFF748
:104780002FFB00F09FF90028A2D1C9F80080BFF3E9
:104790004F8FBFF36F8F9BE72046FFF721FB00F0A1
:1047A00091F995E704ED00E02DE9F0410C46050094
:1047B00011D0C4B1FFF7B6FC174EF1686B682268E0
:1047C000C81A571C17D02F68366AB74219D08B42C7
:1047D00017D8012410E0502080F31188BFF34F8FC9
:1047E000BFF36F8FFEE7502080F31188BFF34F8F28
:1047F000BFF36F8FFEE70024FFF7B4FC2046BDE84F
:10480000F081824205D9101A20602846FFF752FD38
:10481000F1E700202060DCE7200000202DE9FF5FA9
:104820008346DDE90E87994616468A469000FFF7D3
:104830000DFB05001CD05420FFF708FB040014D02A
:104840000020256384F85100CDE90240CDE90087BE
:104850004B46324651465846FFF71DFA2046FFF7B1
:10486000EFF8012004B0BDE8F09F2846FFF78EFC6A
:104870004FF0FF30F6E7F0B585B00546DDE90B04F3
:104880000A9EA8B1E4B1542700972063022084F85F
:1048900051000020CDE9024004AF2846CDE9006771
:1048A000FFF7F9F92046FFF7CBF8049805B0F0BD03
:1048B000502080F31188BFF34F8FBFF36F8FFEE757
:1048C000502080F31188BFF34F8FBFF36F8FFEE747
:1048D0000548416919B1006B18B1002070470120EB
:1048E0007047022070470000200000202DE9F041B1
:1048F0002F4F0026386B28B1B869401CB86130468C
:10490000BDE8F081FD686D1CFD6013D1786B006817
:1049100038B1502080F31188BFF34F8FBFF36F8FF2
:10492000FEE7786BB96B7963B863386A401C38620C
:10493000FFF732FAB86ADFF87C80854209D3786BDA
:104940000068A0B1786BC068C4686068854211D205
:10495000B8623868C06A00EB800158F8210001286D
:1049600000D90126F8690028C9D00126C7E74FF011
:10497000FF30EDE7201DFFF785FBA06A18B104F1B9
:104980001800FFF77FFBE06A01213A69814011437B
:10499000396100EB800108EB8100211DFFF7B6FBB8
:1049A000E06A3968C96A8842C9D30126C7E70000AE
:1049B00020000020B404002070B504004FF0000077
:1049C00041D0214D29688C4207D0502080F31188B6
:1049D000BFF34F8FBFF36F8FFEE7A16C71B1491E1C
:1049E000A164636CE26A9A422DD000292BD1201D6C
:1049F000FFF748FB1549012240B112E0502080F337
:104A00001188BFF34F8FBFF36F8FFEE7E06A00EBB3
:104A1000800351F8233023B92B6902FA00F0834355
:104A20002B61606CE062C0F10700A061E06A2B6955
:104A300082401A432A6100EB800001EB8000211DB7
:104A4000FFF764FB012070BD20000020B4040020AB
:104A50002DE9F041C068C468ACB104F11800074604
:104A6000FFF710FB154D286B0126A0B139461448FD
:104A7000FFF74CFBE06A2968C96A88421CD901200B
:104A8000EE61BDE8F081502080F31188BFF34F8FB5
:104A9000BFF36F8FFEE7201DFFF7F4FAE06A2A6983
:104AA00006FA00F111432961054900EB8000B43991
:104AB00001EB8000211DDBE70020E2E72000002061
:104AC000680500202DE9F0472C4D00242746286B6F
:104AD00038B1FFF727FB286B401E2863286B40B1D5
:104AE00046E0502080F31188BFF34F8FBFF36F8FE4
:104AF000FEE7A86822490126D0B3A1F1B40988468F
:104B0000D8F80010E9B1D8F80C00C46804F1180016
:104B1000FFF7B8FA201DFFF7B5FAE06A2A6906FA2E
:104B200000F11143296100EB800109EB8100211D97
:104B3000FFF7ECFAE06A2968C96A8842E0D3EE61BF
:104B4000DEE70CB1FFF728F9AC693CB1FFF7CEFE08
:104B500000B1EE61641EF9D10020A861E86938B1A6
:104B60000849012738070860BFF34F8FBFF36F8FE5
:104B7000FFF7F8FA3846BDE8F08700002000002073
:104B80006805002004ED00E010B500290AD008787F
:104B9000002807D005487844FCF7ACFC002801D079
:104BA000002010BD0248784410BD00002202000021
:104BB0001A02000010B500290AD00878002807D092
:104BC00005487844FCF796FC002801D0002010BD71
:104BD0000248784410BD0000120200000A020000E2
:104BE000FCF795B8FCF7CAB9050000000400000006
:104BF0000000000000000000744D0008F5310008BE
:104C0000FEFF000000000000800000000000000027
:104C100000000000804D0008FD3100080000000089
:104C20000000000080000000000000000000000004
:104C30008C4D0008FD3F000802000000000000004D
:104C4000000100000000000000000000010202035B
:104C50000405060708090A0B0C0D0E0F10100000C2
:104C6000000000000000010203040607080900001C
:104C7000000001020304000000000000000000002A
:104C80003031323334353637383941424344454682
:104C9000403058003031323334353637383961627C
:104CA000636465664030780004000008000000007E
:104CB000000000020001000010303132333435367C
:104CC0003738396162636465667870003031323339
:104CD0003435363738394142434445465850000050
:104CE00002400000000000A000000000054000009D
:104CF000000000C8000000000C4000000000409CC4
:104D000000000000194000000020BCBE00000000B0
:104D100034400000BFC91B8E00000004B5400000F5
:104D2000504BCFD06607E2CF010000006C4100007D
:104D30003E8251AADFEEA73401000000D9420000F4
:104D4000DCB5A0E23A301F97FFFFFFFFB44500003B
:104D5000FD25A0C8E9A3C14FFFFFFFFFFF3F0000F3
:104D60000000008000000000FF3F00000000008005
:104D70000000000064656661756C745461736B00BB
:104D80006D61696E5F7461736B00000075617274B0
:104D900052785F7461736B00E84E000800000020D9
:104DA0008C00000028010008744F00088C000020CF
:104DB0007C1D0000440100081C00000043000000AE
:104DC000F8FFFFFF0C0000000E0000000F000000C5
:104DD0002E0000001001000043000000F8FFFFFF5C
:104DE00000404040404040404040414141414140FE
:104DF00040404040404040404040404040404040B3
:104E00004005020202020202020202020202020241
:104E10000220202020202020202020020202020246
:104E2000020290909090909010101010101010109E
:104E300010101010101010101010101002020202AA
:104E400002028888888888880808080808080808EE
:104E500008080808080808080808080802020202EA
:104E60004000000000000000000000000000000002
:104E70000000000000000000000000000000000032
:104E80000000000000000000000000000000000022
:104E90000000000000000000000000000000000012
:104EA0000000000000000000000000000000000002
:104EB00000000000000000000000000000000000F2
:104EC00000000000000000000000000000000000E2
:104ED00000000000000000000000000000000000D2
:104EE0000000000009E9FFFF0000000000000000D2
:104EF00000000000000000000100000010000000A1
:104F00000000000000127A00000000000000000015
:104F10000000000000000000000000000000000091
:104F20000000000000000000000000000000000081
:104F30000000000000000000000000000000000071
:104F40000000000000000000000000000000000061
:104F50000000000000000000000000000000000051
:104F60000000000000000000AAAAAAAA0000000099
:044F7000000000003D
:04000005080000ED02
:00000001FF
